{"abi":[{"type":"constructor","inputs":[{"name":"admin","type":"address","internalType":"address"}],"stateMutability":"nonpayable"},{"type":"function","name":"DEFAULT_ADMIN_ROLE","inputs":[],"outputs":[{"name":"","type":"bytes32","internalType":"bytes32"}],"stateMutability":"view"},{"type":"function","name":"VERIFIER_ROLE","inputs":[],"outputs":[{"name":"","type":"bytes32","internalType":"bytes32"}],"stateMutability":"view"},{"type":"function","name":"cancelContract","inputs":[{"name":"documentHash","type":"bytes32","internalType":"bytes32"}],"outputs":[],"stateMutability":"nonpayable"},{"type":"function","name":"contracts","inputs":[{"name":"","type":"bytes32","internalType":"bytes32"}],"outputs":[{"name":"documentHash","type":"bytes32","internalType":"bytes32"},{"name":"agreementType","type":"uint8","internalType":"enum ContractSigner.AgreementType"},{"name":"initiator","type":"address","internalType":"address"},{"name":"createdAt","type":"uint256","internalType":"uint256"},{"name":"expiresAt","type":"uint256","internalType":"uint256"},{"name":"isExecuted","type":"bool","internalType":"bool"},{"name":"isCancelled","type":"bool","internalType":"bool"},{"name":"ipfsHash","type":"string","internalType":"string"},{"name":"nftReputationTier","type":"uint256","internalType":"uint256"},{"name":"vaultId","type":"uint256","internalType":"uint256"}],"stateMutability":"view"},{"type":"function","name":"createContract","inputs":[{"name":"documentHash","type":"bytes32","internalType":"bytes32"},{"name":"agreementType","type":"uint8","internalType":"enum ContractSigner.AgreementType"},{"name":"requiredSignersList","type":"address[]","internalType":"address[]"},{"name":"ipfsHash","type":"string","internalType":"string"},{"name":"nftReputationTier","type":"uint256","internalType":"uint256"},{"name":"expiryDuration","type":"uint256","internalType":"uint256"}],"outputs":[],"stateMutability":"nonpayable"},{"type":"function","name":"documentExists","inputs":[{"name":"","type":"bytes32","internalType":"bytes32"}],"outputs":[{"name":"","type":"bool","internalType":"bool"}],"stateMutability":"view"},{"type":"function","name":"documentHashes","inputs":[{"name":"","type":"uint256","internalType":"uint256"}],"outputs":[{"name":"","type":"bytes32","internalType":"bytes32"}],"stateMutability":"view"},{"type":"function","name":"executeContract","inputs":[{"name":"documentHash","type":"bytes32","internalType":"bytes32"},{"name":"vaultId","type":"uint256","internalType":"uint256"}],"outputs":[],"stateMutability":"nonpayable"},{"type":"function","name":"getContract","inputs":[{"name":"documentHash","type":"bytes32","internalType":"bytes32"}],"outputs":[{"name":"","type":"tuple","internalType":"struct ContractSigner.ContractDocument","components":[{"name":"documentHash","type":"bytes32","internalType":"bytes32"},{"name":"agreementType","type":"uint8","internalType":"enum ContractSigner.AgreementType"},{"name":"initiator","type":"address","internalType":"address"},{"name":"createdAt","type":"uint256","internalType":"uint256"},{"name":"expiresAt","type":"uint256","internalType":"uint256"},{"name":"isExecuted","type":"bool","internalType":"bool"},{"name":"isCancelled","type":"bool","internalType":"bool"},{"name":"ipfsHash","type":"string","internalType":"string"},{"name":"nftReputationTier","type":"uint256","internalType":"uint256"},{"name":"vaultId","type":"uint256","internalType":"uint256"}]}],"stateMutability":"view"},{"type":"function","name":"getContractCount","inputs":[],"outputs":[{"name":"","type":"uint256","internalType":"uint256"}],"stateMutability":"view"},{"type":"function","name":"getDocumentHashAtIndex","inputs":[{"name":"index","type":"uint256","internalType":"uint256"}],"outputs":[{"name":"","type":"bytes32","internalType":"bytes32"}],"stateMutability":"view"},{"type":"function","name":"getRequiredSigners","inputs":[{"name":"documentHash","type":"bytes32","internalType":"bytes32"}],"outputs":[{"name":"","type":"address[]","internalType":"address[]"}],"stateMutability":"view"},{"type":"function","name":"getRoleAdmin","inputs":[{"name":"role","type":"bytes32","internalType":"bytes32"}],"outputs":[{"name":"","type":"bytes32","internalType":"bytes32"}],"stateMutability":"view"},{"type":"function","name":"getSignatures","inputs":[{"name":"documentHash","type":"bytes32","internalType":"bytes32"}],"outputs":[{"name":"","type":"tuple[]","internalType":"struct ContractSigner.Signature[]","components":[{"name":"signer","type":"address","internalType":"address"},{"name":"signature","type":"bytes","internalType":"bytes"},{"name":"timestamp","type":"uint256","internalType":"uint256"},{"name":"isValid","type":"bool","internalType":"bool"}]}],"stateMutability":"view"},{"type":"function","name":"grantRole","inputs":[{"name":"role","type":"bytes32","internalType":"bytes32"},{"name":"account","type":"address","internalType":"address"}],"outputs":[],"stateMutability":"nonpayable"},{"type":"function","name":"hasRole","inputs":[{"name":"role","type":"bytes32","internalType":"bytes32"},{"name":"account","type":"address","internalType":"address"}],"outputs":[{"name":"","type":"bool","internalType":"bool"}],"stateMutability":"view"},{"type":"function","name":"hasSigned","inputs":[{"name":"","type":"bytes32","internalType":"bytes32"},{"name":"","type":"address","internalType":"address"}],"outputs":[{"name":"","type":"bool","internalType":"bool"}],"stateMutability":"view"},{"type":"function","name":"isFullySigned","inputs":[{"name":"documentHash","type":"bytes32","internalType":"bytes32"}],"outputs":[{"name":"","type":"bool","internalType":"bool"}],"stateMutability":"view"},{"type":"function","name":"renounceRole","inputs":[{"name":"role","type":"bytes32","internalType":"bytes32"},{"name":"callerConfirmation","type":"address","internalType":"address"}],"outputs":[],"stateMutability":"nonpayable"},{"type":"function","name":"requiredSigners","inputs":[{"name":"","type":"bytes32","internalType":"bytes32"},{"name":"","type":"uint256","internalType":"uint256"}],"outputs":[{"name":"","type":"address","internalType":"address"}],"stateMutability":"view"},{"type":"function","name":"revokeRole","inputs":[{"name":"role","type":"bytes32","internalType":"bytes32"},{"name":"account","type":"address","internalType":"address"}],"outputs":[],"stateMutability":"nonpayable"},{"type":"function","name":"signContract","inputs":[{"name":"documentHash","type":"bytes32","internalType":"bytes32"},{"name":"signature","type":"bytes","internalType":"bytes"}],"outputs":[],"stateMutability":"nonpayable"},{"type":"function","name":"signatures","inputs":[{"name":"","type":"bytes32","internalType":"bytes32"},{"name":"","type":"uint256","internalType":"uint256"}],"outputs":[{"name":"signer","type":"address","internalType":"address"},{"name":"signature","type":"bytes","internalType":"bytes"},{"name":"timestamp","type":"uint256","internalType":"uint256"},{"name":"isValid","type":"bool","internalType":"bool"}],"stateMutability":"view"},{"type":"function","name":"supportsInterface","inputs":[{"name":"interfaceId","type":"bytes4","internalType":"bytes4"}],"outputs":[{"name":"","type":"bool","internalType":"bool"}],"stateMutability":"view"},{"type":"event","name":"ContractCancelled","inputs":[{"name":"documentHash","type":"bytes32","indexed":true,"internalType":"bytes32"},{"name":"canceller","type":"address","indexed":true,"internalType":"address"}],"anonymous":false},{"type":"event","name":"ContractCreated","inputs":[{"name":"documentHash","type":"bytes32","indexed":true,"internalType":"bytes32"},{"name":"initiator","type":"address","indexed":true,"internalType":"address"},{"name":"agreementType","type":"uint8","indexed":false,"internalType":"enum ContractSigner.AgreementType"},{"name":"ipfsHash","type":"string","indexed":false,"internalType":"string"},{"name":"nftReputationTier","type":"uint256","indexed":false,"internalType":"uint256"}],"anonymous":false},{"type":"event","name":"ContractExecuted","inputs":[{"name":"documentHash","type":"bytes32","indexed":true,"internalType":"bytes32"},{"name":"vaultId","type":"uint256","indexed":false,"internalType":"uint256"}],"anonymous":false},{"type":"event","name":"ContractSigned","inputs":[{"name":"documentHash","type":"bytes32","indexed":true,"internalType":"bytes32"},{"name":"signer","type":"address","indexed":true,"internalType":"address"},{"name":"timestamp","type":"uint256","indexed":false,"internalType":"uint256"},{"name":"signatureCount","type":"uint256","indexed":false,"internalType":"uint256"}],"anonymous":false},{"type":"event","name":"RoleAdminChanged","inputs":[{"name":"role","type":"bytes32","indexed":true,"internalType":"bytes32"},{"name":"previousAdminRole","type":"bytes32","indexed":true,"internalType":"bytes32"},{"name":"newAdminRole","type":"bytes32","indexed":true,"internalType":"bytes32"}],"anonymous":false},{"type":"event","name":"RoleGranted","inputs":[{"name":"role","type":"bytes32","indexed":true,"internalType":"bytes32"},{"name":"account","type":"address","indexed":true,"internalType":"address"},{"name":"sender","type":"address","indexed":true,"internalType":"address"}],"anonymous":false},{"type":"event","name":"RoleRevoked","inputs":[{"name":"role","type":"bytes32","indexed":true,"internalType":"bytes32"},{"name":"account","type":"address","indexed":true,"internalType":"address"},{"name":"sender","type":"address","indexed":true,"internalType":"address"}],"anonymous":false},{"type":"error","name":"AccessControlBadConfirmation","inputs":[]},{"type":"error","name":"AccessControlUnauthorizedAccount","inputs":[{"name":"account","type":"address","internalType":"address"},{"name":"neededRole","type":"bytes32","internalType":"bytes32"}]},{"type":"error","name":"ECDSAInvalidSignature","inputs":[]},{"type":"error","name":"ECDSAInvalidSignatureLength","inputs":[{"name":"length","type":"uint256","internalType":"uint256"}]},{"type":"error","name":"ECDSAInvalidSignatureS","inputs":[{"name":"s","type":"bytes32","internalType":"bytes32"}]}],"bytecode":{"object":"0x60803461007257601f611f4438819003918201601f19168301916001600160401b038311848410176100765780849260209460405283398101031261007257516001600160a01b0381168103610072578061005c6100629261008a565b50610100565b50604051611d5090816101948239f35b5f80fd5b634e487b7160e01b5f52604160045260245ffd5b6001600160a01b0381165f9081525f516020611f245f395f51905f52602052604090205460ff166100fb576001600160a01b03165f8181525f516020611f245f395f51905f5260205260408120805460ff191660011790553391905f516020611ee45f395f51905f528180a4600190565b505f90565b6001600160a01b0381165f9081525f516020611f045f395f51905f52602052604090205460ff166100fb576001600160a01b03165f8181525f516020611f045f395f51905f5260205260408120805460ff191660011790553391907f0ce23c3e399818cfee81a7ab0880f714e53d7672b08df0fa62f2843416e1ea09905f516020611ee45f395f51905f529080a460019056fe6080806040526004361015610012575f80fd5b5f3560e01c90816301ffc9a71461161a575080631de31596146110e95780632271ef3e14610fb8578063248a9ca314610f8657806329832c0f14610f3d5780632f2ff15d14610f005780633074cb3414610d8957806336568abe14610d4557806337a3726614610ce65780634e01b34a14610c16578063660bfb3814610bb257806374400fd114610b245780638e383c6b14610aec57806391d1485414610aa45780639399869d14610a875780639bc5106814610924578063a18f9688146108fc578063a217fddf146108e2578063cbfe6d41146108b3578063d547741f1461086f578063e16c7d98146106ce578063e7705db614610694578063ec56a373146105c25763f7f119fd14610124575f80fd5b346105be5760403660031901126105be5760043560243567ffffffffffffffff81116105be57366023820112156105be576101699036906024816004013591016116f6565b90805f52600660205261018260ff60405f2054166118d9565b805f52600160205261019e60ff600460405f2001541615611925565b805f5260016020526101bd60ff600460405f20015460081c1615611971565b805f526001602052600360405f2001544211610586575f81815260046020908152604080832033845290915290205460ff16610550575f90805f52600360205260405f20604051808260208294549384815201905f5260205f20925f5b81811061052e57505061022f925003826116a6565b5f5b815181101561052657336001600160a01b0361024d83856119b2565b51161461025c57600101610231565b5050905060015b156104e9577f19457468657265756d205369676e6564204d6573736167653a0a3332000000005f5280601c526102a861029f83603c5f20611bd7565b90929192611c11565b336001600160a01b03909116036104b057805f52600260205260405f20604051906102d28261168a565b33825260208201938452604082014281526060830191600183528054600160401b811015610489576103099160018201815561176a565b93909361049d575183546001600160a01b0319166001600160a01b039190911617835593518051909490600184019067ffffffffffffffff81116104895761035b816103558454611783565b84611894565b6020601f821160011461041f5781600395949392610393926103b2999a5f92610414575b50508160011b915f199060031b1c19161790565b90555b51600284015551151591019060ff801983541691151516179055565b5f81815260046020908152604080832033808552908352818420805460ff191660011790558484526002835292819020548151428152928301529192917f54b9ef388224ea5322530b6990dd04d60a46dc1ad0face2886488f9c2a20b90591a3005b015190505f8061037f565b601f19821697835f52815f20985f5b81811061047157509860019284926003989796956103b29b9c1061045a575b505050811b019055610396565b01515f1983891b60f8161c191690555f808061044d565b838301518b556001909a01996020938401930161042e565b634e487b7160e01b5f52604160045260245ffd5b634e487b7160e01b5f525f60045260245ffd5b60405162461bcd60e51b8152602060048201526011602482015270496e76616c6964207369676e617475726560781b6044820152606490fd5b60405162461bcd60e51b81526020600482015260156024820152742737ba1030903932b8bab4b932b21039b4b3b732b960591b6044820152606490fd5b505090610263565b84546001600160a01b031683526001948501948694506020909301920161021a565b60405162461bcd60e51b815260206004820152600e60248201526d105b1c9958591e481cda59db995960921b6044820152606490fd5b60405162461bcd60e51b815260206004820152601060248201526f10dbdb9d1c9858dd08195e1c1a5c995960821b6044820152606490fd5b5f80fd5b346105be5760203660031901126105be576004355f52600160205260405f20805460018201549160ff831692610683600283015460ff60038501546004860154906040519361061f856106188160058c016117bb565b03866116a6565b60076006890154980154966040519a8b9a8b5261063b81611860565b60208b015260018060a01b039060081c1660408a015260608901526080880152818116151560a088015260081c16151560c086015261014060e086015261014085019061183c565b916101008401526101208301520390f35b346105be575f3660031901126105be5760206040517f0ce23c3e399818cfee81a7ab0880f714e53d7672b08df0fa62f2843416e1ea098152f35b346105be5760203660031901126105be576004355f6101206040516106f28161166d565b8281528260208201528260408201528260608201528260808201528260a08201528260c0820152606060e0820152826101008201520152805f52600660205261074160ff60405f2054166118d9565b5f52600160205260405f206040516107588161166d565b81548152600182015460208201929060ff811661077481611860565b8452604083019060018060a01b039060081c16815261085c60028301546060850190815260038401546080860190815260048501549060a087019060ff83161515825260ff60c089019360081c1615158352604051936107db856106188160058c016117bb565b60e0890194855260076006890154986101008b01998a520154966101208a019788526040519a8b9a60208c525160208c01525161081781611860565b60408b0152516001600160a01b031660608a01525160808901525160a088015251151560c087015251151560e08601525161014061010086015261016085019061183c565b9151610120840152516101408301520390f35b346105be5760403660031901126105be576108b160043561088e6116e0565b906108ac6108a7825f525f602052600160405f20015490565b611a97565b611b57565b005b346105be5760203660031901126105be576004355f526006602052602060ff60405f2054166040519015158152f35b346105be575f3660031901126105be5760206040515f8152f35b346105be5760203660031901126105be57602061091a6004356119c6565b6040519015158152f35b346105be5760203660031901126105be57600435805f52600660205261095060ff60405f2054166118d9565b5f52600260205260405f20805490610967826116c8565b9161097560405193846116a6565b8083526020830180925f5260205f205f915b838310610a2457848660405191829160208301906020845251809152604083019060408160051b85010192915f905b8282106109c557505050500390f35b919360019193955060208091603f19898203018552875190848060a01b038251168152606080610a0285850151608087860152608085019061183c565b93604081015160408501520151151591015296019201920185949391926109b6565b60046020600192604051610a378161168a565b848060a01b038654168152604051610a5c81610a5581898b016117bb565b03826116a6565b838201526002860154604082015260ff60038701541615156060820152815201920192019190610987565b346105be575f3660031901126105be576020600554604051908152f35b346105be5760403660031901126105be57610abd6116e0565b6004355f525f60205260405f209060018060a01b03165f52602052602060ff60405f2054166040519015158152f35b346105be5760203660031901126105be576004356005548110156105be57610b15602091611752565b90549060031b1c604051908152f35b346105be57610b323661173c565b905f52600260205260405f209081548110156105be57610b519161176a565b5060018060a01b0381541660405191610b7883610b7181600185016117bb565b03846116a6565b60ff6003600283015492015416610ba1604051948594855260806020860152608085019061183c565b916040840152151560608301520390f35b346105be5760203660031901126105be57600435600554811015610bdb57610b15602091611752565b60405162461bcd60e51b8152602060048201526013602482015272496e646578206f7574206f6620626f756e647360681b6044820152606490fd5b346105be5760203660031901126105be57600435805f526006602052610c4260ff60405f2054166118d9565b5f52600360205260405f20604051806020835491828152019081935f5260205f20905f5b818110610cc75750505081610c7c9103826116a6565b604051918291602083019060208452518091526040830191905f5b818110610ca5575050500390f35b82516001600160a01b0316845285945060209384019390920191600101610c97565b82546001600160a01b0316845260209093019260019283019201610c66565b346105be57610cf43661173c565b905f52600360205260405f209081548110156105be578154811015610d31575f91825260209182902001546040516001600160a01b039091168152f35b634e487b7160e01b5f52603260045260245ffd5b346105be5760403660031901126105be57610d5e6116e0565b336001600160a01b03821603610d7a576108b190600435611b57565b63334bd91960e11b5f5260045ffd5b346105be57610d973661173c565b335f9081527f1da0b5176dfe03406af5a6eed66ca01dda9b45ac4da671c3fa379cb93717ef81602052604090205460ff1615610ec957815f526006602052610de560ff60405f2054166118d9565b815f526001602052610e0160ff600460405f2001541615611925565b815f526001602052610e2060ff600460405f20015460081c1615611971565b610e29826119c6565b15610e845760207fa608f929bbb47a0ee06e9900229915a12f783ff87ec78b36c7ab7226d30e1f3891835f5260018252600460405f2001600160ff19825416179055835f526001825280600760405f200155604051908152a2005b60405162461bcd60e51b815260206004820152601b60248201527f4e6f7420616c6c20706172746965732068617665207369676e656400000000006044820152606490fd5b63e2517d3f60e01b5f52336004527f0ce23c3e399818cfee81a7ab0880f714e53d7672b08df0fa62f2843416e1ea0960245260445ffd5b346105be5760403660031901126105be576108b1600435610f1f6116e0565b90610f386108a7825f525f602052600160405f20015490565b611acf565b346105be5760403660031901126105be57610f566116e0565b6004355f52600460205260405f209060018060a01b03165f52602052602060ff60405f2054166040519015158152f35b346105be5760203660031901126105be576020610fb06004355f525f602052600160405f20015490565b604051908152f35b346105be5760203660031901126105be57600435805f526006602052610fe460ff60405f2054166118d9565b805f52600160205261100060ff600460405f2001541615611925565b805f52600160205260018060a01b03600160405f20015460081c16331480156110b2575b1561106d57805f526001602052600460405f200161010061ff001982541617905533907f99aed872a4fa3ac1488d4c3ff3b2e13d5fbecae67aa18eaef773bf099bd4be605f80a3005b60405162461bcd60e51b815260206004820152601860248201527f4e6f7420617574686f72697a656420746f2063616e63656c00000000000000006044820152606490fd5b50335f9081527fad3228b676f7d3cd4284a5443f17f1962b36e491b30a40b2405849e597ba5fb5602052604090205460ff16611024565b346105be5760c03660031901126105be576004356024359060048210156105be576044359167ffffffffffffffff83116105be57366023840112156105be57826004013590611137826116c8565b9361114560405195866116a6565b82855260208501906024829460051b820101903682116105be57602401915b8183106115fa5750505060643567ffffffffffffffff81116105be57366023820112156105be5761119f9036906024816004013591016116f6565b9160843594845f52600660205260ff60405f2054166115b557805115611561576002861161151c578351156114e25760a43542018042116114ce578587604051926111e98461166d565b82845260208401906111fa88611860565b878252604085019133835260608601914283526080870190815260a08701925f845260c08801925f845260e08901958d87526101008a019788526101208a01985f8a525f52600160205260405f2099518a5560018a0191519061125c82611860565b61126582611860565b60ff835491610100600160a81b03905160081b169216906affffffffffffffffffffff60a81b16171790555160028801555160038701556112b96004870192511515839060ff801983541691151516179055565b51815461ff00191690151560081b61ff0016179055518051600585019167ffffffffffffffff8211610489576112f9826112f38554611783565b85611894565b602090601f831160011461146657918061132d926007979695945f9261145b5750508160011b915f199060031b1c19161790565b90555b51600684015551910155845f52600360205260405f2090519167ffffffffffffffff831161048957600160401b831161048957815483835580841061143f575b50905f5260205f205f5b8381106114225750505050600554600160401b811015610489577fe29516f3380e199c2447e378f5f16d8509b07cf7d01966088119d81fe42b6186926113c98260016114149401600555611752565b81549060031b9087821b915f19901b1916179055845f52600660205260405f20600160ff198254161790556040519261140181611860565b835260606020840152606083019061183c565b9360408201528033940390a3005b82516001600160a01b03168183015560209092019160010161137a565b61145590835f528460205f20918201910161187e565b87611370565b015190508e8061037f565b90601f19831691845f52815f20925f5b8181106114b65750916001939185600799989796941061149e575b505050811b019055611330565b01515f1960f88460031b161c191690558d8080611491565b92936020600181928786015181550195019301611476565b634e487b7160e01b5f52601160045260245ffd5b60405162461bcd60e51b815260206004820152601260248201527112541194c81a185cda081c995c5d5a5c995960721b6044820152606490fd5b60405162461bcd60e51b815260206004820152601760248201527f496e76616c69642072657075746174696f6e20746965720000000000000000006044820152606490fd5b60405162461bcd60e51b815260206004820152602660248201527f4d7573742068617665206174206c65617374206f6e652072657175697265642060448201526539b4b3b732b960d11b6064820152608490fd5b60405162461bcd60e51b815260206004820152601760248201527f436f6e747261637420616c7265616479206578697374730000000000000000006044820152606490fd5b82356001600160a01b03811681036105be57815260209283019201611164565b346105be5760203660031901126105be576004359063ffffffff60e01b82168092036105be57602091637965db0b60e01b811490811561165c575b5015158152f35b6301ffc9a760e01b14905083611655565b610140810190811067ffffffffffffffff82111761048957604052565b6080810190811067ffffffffffffffff82111761048957604052565b90601f8019910116810190811067ffffffffffffffff82111761048957604052565b67ffffffffffffffff81116104895760051b60200190565b602435906001600160a01b03821682036105be57565b92919267ffffffffffffffff82116104895760405191611720601f8201601f1916602001846116a6565b8294818452818301116105be578281602093845f960137010152565b60409060031901126105be576004359060243590565b600554811015610d315760055f5260205f2001905f90565b8054821015610d31575f5260205f209060021b01905f90565b90600182811c921680156117b1575b602083101461179d57565b634e487b7160e01b5f52602260045260245ffd5b91607f1691611792565b5f92918154916117ca83611783565b808352926001811690811561181f57506001146117e657505050565b5f9081526020812093945091925b838310611805575060209250010190565b6001816020929493945483858701015201910191906117f4565b915050602093945060ff929192191683830152151560051b010190565b805180835260209291819084018484015e5f828201840152601f01601f1916010190565b6004111561186a57565b634e487b7160e01b5f52602160045260245ffd5b818110611889575050565b5f815560010161187e565b9190601f81116118a357505050565b6118cd925f5260205f20906020601f840160051c830193106118cf575b601f0160051c019061187e565b565b90915081906118c0565b156118e057565b60405162461bcd60e51b815260206004820152601760248201527f436f6e747261637420646f6573206e6f742065786973740000000000000000006044820152606490fd5b1561192c57565b60405162461bcd60e51b815260206004820152601960248201527f436f6e747261637420616c7265616479206578656375746564000000000000006044820152606490fd5b1561197857565b60405162461bcd60e51b815260206004820152601260248201527110dbdb9d1c9858dd0818d85b98d95b1b195960721b6044820152606490fd5b8051821015610d315760209160051b010190565b805f5260066020526119de60ff60405f2054166118d9565b805f52600360205260405f20604051808260208294549384815201905f5260205f20925f5b818110611a75575050611a18925003826116a6565b5f5b8151811015611a6d575f8381526004602052604090206001600160a01b03611a4283856119b2565b511660018060a01b03165f5260205260ff60405f20541615611a6657600101611a1a565b5050505f90565b505050600190565b84546001600160a01b0316835260019485019486945060209093019201611a03565b5f8181526020818152604080832033845290915290205460ff1615611ab95750565b63e2517d3f60e01b5f523360045260245260445ffd5b5f818152602081815260408083206001600160a01b038616845290915290205460ff16611b51575f818152602081815260408083206001600160a01b0395909516808452949091528120805460ff19166001179055339291907f2f8788117e7eff1d82e926ec794901d17c78024a50270940304540a733656f0d9080a4600190565b50505f90565b5f818152602081815260408083206001600160a01b038616845290915290205460ff1615611b51575f818152602081815260408083206001600160a01b0395909516808452949091528120805460ff19169055339291907ff6391f5c32d9c69d2a47ea670b442974b53935d1edc7fd64eb21e047a839171b9080a4600190565b8151919060418303611c0757611c009250602082015190606060408401519301515f1a90611c8d565b9192909190565b50505f9160029190565b611c1a81611860565b80611c23575050565b611c2c81611860565b60018103611c435763f645eedf60e01b5f5260045ffd5b611c4c81611860565b60028103611c67575063fce698f760e01b5f5260045260245ffd5b600390611c7381611860565b14611c7b5750565b6335e2f38360e21b5f5260045260245ffd5b91907f7fffffffffffffffffffffffffffffff5d576e7357a4501ddfe92f46681b20a08411611d0f579160209360809260ff5f9560405194855216868401526040830152606082015282805260015afa15611d04575f516001600160a01b03811615611cfa57905f905f90565b505f906001905f90565b6040513d5f823e3d90fd5b5050505f916003919056fea26469706673582212201c079747a2428eebc7b65aeab7b7b478ffd7bb355e79884b4810e11d1548bfb664736f6c634300081e00332f8788117e7eff1d82e926ec794901d17c78024a50270940304540a733656f0d1da0b5176dfe03406af5a6eed66ca01dda9b45ac4da671c3fa379cb93717ef81ad3228b676f7d3cd4284a5443f17f1962b36e491b30a40b2405849e597ba5fb5","linkReferences":{}},"methodIdentifiers":{"DEFAULT_ADMIN_ROLE()":"a217fddf","VERIFIER_ROLE()":"e7705db6","cancelContract(bytes32)":"2271ef3e","contracts(bytes32)":"ec56a373","createContract(bytes32,uint8,address[],string,uint256,uint256)":"1de31596","documentExists(bytes32)":"cbfe6d41","documentHashes(uint256)":"8e383c6b","executeContract(bytes32,uint256)":"3074cb34","getContract(bytes32)":"e16c7d98","getContractCount()":"9399869d","getDocumentHashAtIndex(uint256)":"660bfb38","getRequiredSigners(bytes32)":"4e01b34a","getRoleAdmin(bytes32)":"248a9ca3","getSignatures(bytes32)":"9bc51068","grantRole(bytes32,address)":"2f2ff15d","hasRole(bytes32,address)":"91d14854","hasSigned(bytes32,address)":"29832c0f","isFullySigned(bytes32)":"a18f9688","renounceRole(bytes32,address)":"36568abe","requiredSigners(bytes32,uint256)":"37a37266","revokeRole(bytes32,address)":"d547741f","signContract(bytes32,bytes)":"f7f119fd","signatures(bytes32,uint256)":"74400fd1","supportsInterface(bytes4)":"01ffc9a7"},"id":54}