{"abi":[{"type":"constructor","inputs":[{"name":"defaultAdmin","type":"address","internalType":"address"},{"name":"minter","type":"address","internalType":"address"}],"stateMutability":"nonpayable"},{"type":"function","name":"DEFAULT_ADMIN_ROLE","inputs":[],"outputs":[{"name":"","type":"bytes32","internalType":"bytes32"}],"stateMutability":"view"},{"type":"function","name":"MINTER_ROLE","inputs":[],"outputs":[{"name":"","type":"bytes32","internalType":"bytes32"}],"stateMutability":"view"},{"type":"function","name":"approve","inputs":[{"name":"","type":"address","internalType":"address"},{"name":"","type":"uint256","internalType":"uint256"}],"outputs":[],"stateMutability":"pure"},{"type":"function","name":"balanceOf","inputs":[{"name":"owner","type":"address","internalType":"address"}],"outputs":[{"name":"","type":"uint256","internalType":"uint256"}],"stateMutability":"view"},{"type":"function","name":"burn","inputs":[{"name":"tokenId","type":"uint256","internalType":"uint256"}],"outputs":[],"stateMutability":"nonpayable"},{"type":"function","name":"getApproved","inputs":[{"name":"tokenId","type":"uint256","internalType":"uint256"}],"outputs":[{"name":"","type":"address","internalType":"address"}],"stateMutability":"view"},{"type":"function","name":"getCompanyId","inputs":[{"name":"tokenId","type":"uint256","internalType":"uint256"}],"outputs":[{"name":"","type":"string","internalType":"string"}],"stateMutability":"view"},{"type":"function","name":"getRoleAdmin","inputs":[{"name":"role","type":"bytes32","internalType":"bytes32"}],"outputs":[{"name":"","type":"bytes32","internalType":"bytes32"}],"stateMutability":"view"},{"type":"function","name":"getTokenState","inputs":[{"name":"tokenId","type":"uint256","internalType":"uint256"}],"outputs":[{"name":"","type":"bool","internalType":"bool"}],"stateMutability":"view"},{"type":"function","name":"grantRole","inputs":[{"name":"role","type":"bytes32","internalType":"bytes32"},{"name":"account","type":"address","internalType":"address"}],"outputs":[],"stateMutability":"nonpayable"},{"type":"function","name":"hasRole","inputs":[{"name":"role","type":"bytes32","internalType":"bytes32"},{"name":"account","type":"address","internalType":"address"}],"outputs":[{"name":"","type":"bool","internalType":"bool"}],"stateMutability":"view"},{"type":"function","name":"isApprovedForAll","inputs":[{"name":"owner","type":"address","internalType":"address"},{"name":"operator","type":"address","internalType":"address"}],"outputs":[{"name":"","type":"bool","internalType":"bool"}],"stateMutability":"view"},{"type":"function","name":"name","inputs":[],"outputs":[{"name":"","type":"string","internalType":"string"}],"stateMutability":"view"},{"type":"function","name":"ownerOf","inputs":[{"name":"tokenId","type":"uint256","internalType":"uint256"}],"outputs":[{"name":"","type":"address","internalType":"address"}],"stateMutability":"view"},{"type":"function","name":"renounceRole","inputs":[{"name":"role","type":"bytes32","internalType":"bytes32"},{"name":"callerConfirmation","type":"address","internalType":"address"}],"outputs":[],"stateMutability":"nonpayable"},{"type":"function","name":"revokeRole","inputs":[{"name":"role","type":"bytes32","internalType":"bytes32"},{"name":"account","type":"address","internalType":"address"}],"outputs":[],"stateMutability":"nonpayable"},{"type":"function","name":"safeMint","inputs":[{"name":"to","type":"address","internalType":"address"},{"name":"companyId","type":"string","internalType":"string"},{"name":"uri","type":"string","internalType":"string"}],"outputs":[{"name":"","type":"uint256","internalType":"uint256"}],"stateMutability":"nonpayable"},{"type":"function","name":"safeTransferFrom","inputs":[{"name":"from","type":"address","internalType":"address"},{"name":"to","type":"address","internalType":"address"},{"name":"tokenId","type":"uint256","internalType":"uint256"}],"outputs":[],"stateMutability":"nonpayable"},{"type":"function","name":"safeTransferFrom","inputs":[{"name":"","type":"address","internalType":"address"},{"name":"","type":"address","internalType":"address"},{"name":"","type":"uint256","internalType":"uint256"},{"name":"","type":"bytes","internalType":"bytes"}],"outputs":[],"stateMutability":"pure"},{"type":"function","name":"setApprovalForAll","inputs":[{"name":"","type":"address","internalType":"address"},{"name":"","type":"bool","internalType":"bool"}],"outputs":[],"stateMutability":"pure"},{"type":"function","name":"setTokenState","inputs":[{"name":"tokenId","type":"uint256","internalType":"uint256"},{"name":"isActive","type":"bool","internalType":"bool"}],"outputs":[],"stateMutability":"nonpayable"},{"type":"function","name":"supportsInterface","inputs":[{"name":"interfaceId","type":"bytes4","internalType":"bytes4"}],"outputs":[{"name":"","type":"bool","internalType":"bool"}],"stateMutability":"view"},{"type":"function","name":"symbol","inputs":[],"outputs":[{"name":"","type":"string","internalType":"string"}],"stateMutability":"view"},{"type":"function","name":"tokenURI","inputs":[{"name":"tokenId","type":"uint256","internalType":"uint256"}],"outputs":[{"name":"","type":"string","internalType":"string"}],"stateMutability":"view"},{"type":"function","name":"transferFrom","inputs":[{"name":"","type":"address","internalType":"address"},{"name":"","type":"address","internalType":"address"},{"name":"","type":"uint256","internalType":"uint256"}],"outputs":[],"stateMutability":"pure"},{"type":"event","name":"Approval","inputs":[{"name":"owner","type":"address","indexed":true,"internalType":"address"},{"name":"approved","type":"address","indexed":true,"internalType":"address"},{"name":"tokenId","type":"uint256","indexed":true,"internalType":"uint256"}],"anonymous":false},{"type":"event","name":"ApprovalForAll","inputs":[{"name":"owner","type":"address","indexed":true,"internalType":"address"},{"name":"operator","type":"address","indexed":true,"internalType":"address"},{"name":"approved","type":"bool","indexed":false,"internalType":"bool"}],"anonymous":false},{"type":"event","name":"BatchMetadataUpdate","inputs":[{"name":"_fromTokenId","type":"uint256","indexed":false,"internalType":"uint256"},{"name":"_toTokenId","type":"uint256","indexed":false,"internalType":"uint256"}],"anonymous":false},{"type":"event","name":"MetadataUpdate","inputs":[{"name":"_tokenId","type":"uint256","indexed":false,"internalType":"uint256"}],"anonymous":false},{"type":"event","name":"RoleAdminChanged","inputs":[{"name":"role","type":"bytes32","indexed":true,"internalType":"bytes32"},{"name":"previousAdminRole","type":"bytes32","indexed":true,"internalType":"bytes32"},{"name":"newAdminRole","type":"bytes32","indexed":true,"internalType":"bytes32"}],"anonymous":false},{"type":"event","name":"RoleGranted","inputs":[{"name":"role","type":"bytes32","indexed":true,"internalType":"bytes32"},{"name":"account","type":"address","indexed":true,"internalType":"address"},{"name":"sender","type":"address","indexed":true,"internalType":"address"}],"anonymous":false},{"type":"event","name":"RoleRevoked","inputs":[{"name":"role","type":"bytes32","indexed":true,"internalType":"bytes32"},{"name":"account","type":"address","indexed":true,"internalType":"address"},{"name":"sender","type":"address","indexed":true,"internalType":"address"}],"anonymous":false},{"type":"event","name":"Transfer","inputs":[{"name":"from","type":"address","indexed":true,"internalType":"address"},{"name":"to","type":"address","indexed":true,"internalType":"address"},{"name":"tokenId","type":"uint256","indexed":true,"internalType":"uint256"}],"anonymous":false},{"type":"error","name":"AccessControlBadConfirmation","inputs":[]},{"type":"error","name":"AccessControlUnauthorizedAccount","inputs":[{"name":"account","type":"address","internalType":"address"},{"name":"neededRole","type":"bytes32","internalType":"bytes32"}]},{"type":"error","name":"ERC721IncorrectOwner","inputs":[{"name":"sender","type":"address","internalType":"address"},{"name":"tokenId","type":"uint256","internalType":"uint256"},{"name":"owner","type":"address","internalType":"address"}]},{"type":"error","name":"ERC721InsufficientApproval","inputs":[{"name":"operator","type":"address","internalType":"address"},{"name":"tokenId","type":"uint256","internalType":"uint256"}]},{"type":"error","name":"ERC721InvalidApprover","inputs":[{"name":"approver","type":"address","internalType":"address"}]},{"type":"error","name":"ERC721InvalidOperator","inputs":[{"name":"operator","type":"address","internalType":"address"}]},{"type":"error","name":"ERC721InvalidOwner","inputs":[{"name":"owner","type":"address","internalType":"address"}]},{"type":"error","name":"ERC721InvalidReceiver","inputs":[{"name":"receiver","type":"address","internalType":"address"}]},{"type":"error","name":"ERC721InvalidSender","inputs":[{"name":"sender","type":"address","internalType":"address"}]},{"type":"error","name":"ERC721NonexistentToken","inputs":[{"name":"tokenId","type":"uint256","internalType":"uint256"}]},{"type":"error","name":"SoulboundToken","inputs":[]}],"bytecode":{"object":"0x608060405234610349576119106040813803918261001c8161034d565b9384928339810103126103495761003e602061003783610372565b9201610372565b90610049604061034d565b91600b83526a436f6e7665786f5f4c507360a81b602084015261006c604061034d565b6006815265434e584c507360d01b602082015283516001600160401b03811161025d575f54600181811c9116801561033f575b602082101461023f57601f81116102dd575b50602094601f821160011461027c579481929394955f92610271575b50508160011b915f199060031b1c1916175f555b8051906001600160401b03821161025d57600154600181811c91168015610253575b602082101461023f57601f81116101dc575b50602090601f8311600114610170579180610155959261014f945f92610165575b50508160011b915f199060031b1c191617600155610386565b506103fc565b5060405161142090816104908239f35b015190505f80610136565b90601f1983169160015f52815f20925f5b8181106101c4575092600192859261014f966101559996106101ac575b505050811b01600155610386565b01515f1960f88460031b161c191690555f808061019e565b92936020600181928786015181550195019301610181565b60015f527fb10e2d527612073b26eecdfd717e6a320cf44b4afac2b0732d9fcbe2b7fa0cf6601f840160051c81019160208510610235575b601f0160051c01905b81811061022a5750610115565b5f815560010161021d565b9091508190610214565b634e487b7160e01b5f52602260045260245ffd5b90607f1690610103565b634e487b7160e01b5f52604160045260245ffd5b015190505f806100cd565b601f198216955f8052805f20915f5b8881106102c5575083600195969798106102ad575b505050811b015f556100e1565b01515f1960f88460031b161c191690555f80806102a0565b9192602060018192868501518155019401920161028b565b5f80527f290decd9548b62a8d60345a988386fc84ba6bc95484008f6362f93160ef3e563601f830160051c81019160208410610335575b601f0160051c01905b81811061032a57506100b1565b5f815560010161031d565b9091508190610314565b90607f169061009f565b5f80fd5b6040519190601f01601f191682016001600160401b0381118382101761025d57604052565b51906001600160a01b038216820361034957565b6001600160a01b0381165f9081525f5160206118d05f395f51905f52602052604090205460ff166103f7576001600160a01b03165f8181525f5160206118d05f395f51905f5260205260408120805460ff191660011790553391905f5160206118b05f395f51905f528180a4600190565b505f90565b6001600160a01b0381165f9081525f5160206118f05f395f51905f52602052604090205460ff166103f7576001600160a01b03165f8181525f5160206118f05f395f51905f5260205260408120805460ff191660011790553391907f9f2df0fed2c77648de5860a4cc508cd0818c85b8b8a1ab4ceeef8d981c8956a6905f5160206118b05f395f51905f529080a460019056fe6080806040526004361015610012575f80fd5b5f3560e01c90816301ffc9a714610dde5750806306fdde0314610d3c578063081812fc14610d00578063095ea7b314610ce757806323b872dd14610cc7578063248a9ca314610c9c5780632f2ff15d14610c5e57806336568abe14610c1a57806342842e0e14610bea57806342966c6814610bcd5780636352211e14610b9d57806370a0823114610b4c57806391d1485414610b0357806395d89b4114610a39578063a217fddf14610a1f578063a22cb465146109fd578063a708900714610913578063b88d4fde146108af578063c87b56dd14610878578063d53913931461083e578063d547741f146107f9578063e985e9c5146107a2578063eca81d421461021c578063efbc6996146101a15763f45fd0f31461012f575f80fd5b3461019d57602036600319011261019d576004355f81815260026020526040902054610165906001600160a01b03161515610fe0565b5f52600960205260ff60405f20541660028110156101895760209060405190158152f35b634e487b7160e01b5f52602160045260245ffd5b5f80fd5b3461019d57604036600319011261019d576004356101bd610f07565b6101c5611057565b5f828152600260205260409020546101e7906001600160a01b03161515610fe0565b15610214575f905b5f52600960205260405f209060028110156101895760ff801983541691161790555f80f35b6001906101ef565b3461019d57606036600319011261019d57610235610ea1565b60243567ffffffffffffffff811161019d57610255903690600401610f8a565b60443567ffffffffffffffff811161019d57610275903690600401610f8a565b335f9081527fa4bfd7afe708e2e87e7f0e2ad9b4d545417e0f795f57b5c5ab5d799c565a04f4602052604090205490919060ff161561076b576008545f19811461075757600181016008556020926040516102d08582610f16565b5f81526001600160a01b038616958615610744575f8481526002875260409020546001600160a01b03168015159081610714575b885f526003885260405f2060018154019055855f526002885260405f20896bffffffffffffffffffffffff60a01b8254161790558589827fddf252ad1be2c89b69c2b068fc378daa952ba7f163c4a11628f55a4df523b3ef5f80a450610701573b6105eb575b509080929394505f526006845260405f209080519067ffffffffffffffff821161051b57819061039a8454610fa8565b601f811161059d575b508690601f831160011461053a575f9261052f575b50508160011b915f199060031b1c19161790555b7ff8e1a15aba9398e019f0b49df1a4fde98ee17ae345cb5f6b5e2c27f5033e8ce783604051838152a1805f526009835260405f2060ff198154169055805f52600a835260405f20825167ffffffffffffffff811161051b5761042e8254610fa8565b601f81116104d8575b508493601f82116001146104785793819293945f9261046d575b50508160011b915f199060031b1c19161790555b604051908152f35b015190508580610451565b601f19821694835f52865f20915f5b888882106104c2575050836001959697106104aa575b505050811b019055610465565b01515f1960f88460031b161c1916905585808061049d565b6001849582939585015181550194019201610487565b825f52855f20601f830160051c810191878410610511575b601f0160051c01905b8181106105065750610437565b5f81556001016104f9565b90915081906104f0565b634e487b7160e01b5f52604160045260245ffd5b0151905086806103b8565b5f8581528881209350601f198516905b8982821061058757505090846001959493921061056f575b505050811b0190556103cc565b01515f1960f88460031b161c19169055868080610562565b600185968293968601518155019501930161054a565b909150835f52865f20601f840160051c8101918885106105e1575b90601f859493920160051c01905b8181106105d357506103a3565b5f81558493506001016105c6565b90915081906105b8565b846106249160405180938192630a85bd0160e11b83523360048401525f6024840152876044840152608060648401526084830190610e7d565b03815f8a5af15f91816106c1575b506106855785853d1561067e573d61064981610f38565b906106576040519283610f16565b81523d5f8383013e5b8051918261067b5783633250574960e11b5f5260045260245ffd5b01fd5b6060610660565b93949293919290916001600160e01b03191663757a42ff60e11b016106af5750908392918561036a565b633250574960e11b5f5260045260245ffd5b9091508581813d83116106fa575b6106d98183610f16565b8101031261019d57516001600160e01b03198116810361019d579087610632565b503d6106cf565b6339e3563760e11b5f525f60045260245ffd5b5f86815260048952604080822080546001600160a01b031916905582825260038a52902080545f19019055610304565b633250574960e11b5f525f60045260245ffd5b634e487b7160e01b5f52601160045260245ffd5b63e2517d3f60e01b5f52336004527f9f2df0fed2c77648de5860a4cc508cd0818c85b8b8a1ab4ceeef8d981c8956a660245260445ffd5b3461019d57604036600319011261019d576107bb610ea1565b6107c3610eb7565b9060018060a01b03165f52600560205260405f209060018060a01b03165f52602052602060ff60405f2054166040519015158152f35b3461019d57604036600319011261019d5761083c600435610818610eb7565b90610837610832825f526007602052600160405f20015490565b6110a6565b61116c565b005b3461019d575f36600319011261019d5760206040517f9f2df0fed2c77648de5860a4cc508cd0818c85b8b8a1ab4ceeef8d981c8956a68152f35b3461019d57602036600319011261019d576108ab610897600435611325565b604051918291602083526020830190610e7d565b0390f35b3461019d57608036600319011261019d576108c8610ea1565b506108d1610eb7565b5060643567ffffffffffffffff811161019d573660238201121561019d57610903903690602481600401359101610f54565b50636e10574960e01b5f5260045ffd5b3461019d57602036600319011261019d5760043561092f611057565b5f81815260026020526040902054610951906001600160a01b03161515610fe0565b5f52600a60205260405f20604051905f9080549061096e82610fa8565b80855291600181169081156109d65750600114610996575b6108ab8461089781860382610f16565b5f90815260208120939250905b8082106109bc5750909150810160200161089782610986565b9192600181602092548385880101520191019092916109a3565b60ff191660208087019190915292151560051b850190920192506108979150839050610986565b3461019d57604036600319011261019d57610a16610ea1565b50610903610f07565b3461019d575f36600319011261019d5760206040515f8152f35b3461019d575f36600319011261019d576040515f600154610a5981610fa8565b8084529060018116908115610adf5750600114610a81575b6108ab8361089781850382610f16565b91905060015f527fb10e2d527612073b26eecdfd717e6a320cf44b4afac2b0732d9fcbe2b7fa0cf6915f905b808210610ac557509091508101602001610897610a71565b919260018160209254838588010152019101909291610aad565b60ff191660208086019190915291151560051b840190910191506108979050610a71565b3461019d57604036600319011261019d57610b1c610eb7565b6004355f52600760205260405f209060018060a01b03165f52602052602060ff60405f2054166040519015158152f35b3461019d57602036600319011261019d576001600160a01b03610b6d610ea1565b168015610b8a575f526003602052602060405f2054604051908152f35b6322718ad960e21b5f525f60045260245ffd5b3461019d57602036600319011261019d576020610bbb600435611023565b6040516001600160a01b039091168152f35b3461019d57602036600319011261019d5761083c336004356111f0565b3461019d57610bf836610ecd565b5050505f604051610c0a602082610f16565b52636e10574960e01b5f5260045ffd5b3461019d57604036600319011261019d57610c33610eb7565b336001600160a01b03821603610c4f5761083c9060043561116c565b63334bd91960e11b5f5260045ffd5b3461019d57604036600319011261019d5761083c600435610c7d610eb7565b90610c97610832825f526007602052600160405f20015490565b6110e0565b3461019d57602036600319011261019d5760206104656004355f526007602052600160405f20015490565b3461019d57610cd536610ecd565b505050636e10574960e01b5f5260045ffd5b3461019d57604036600319011261019d57610903610ea1565b3461019d57602036600319011261019d57600435610d1d81611023565b505f526004602052602060018060a01b0360405f205416604051908152f35b3461019d575f36600319011261019d576040515f5f54610d5b81610fa8565b8084529060018116908115610adf5750600114610d82576108ab8361089781850382610f16565b5f8080527f290decd9548b62a8d60345a988386fc84ba6bc95484008f6362f93160ef3e563939250905b808210610dc457509091508101602001610897610a71565b919260018160209254838588010152019101909291610dac565b3461019d57602036600319011261019d576004359063ffffffff60e01b821680920361019d57602091637965db0b60e01b8114908115610e20575b5015158152f35b632483248360e11b811491508115610e3a575b5083610e19565b6380ac58cd60e01b811491508115610e6c575b8115610e5b575b5083610e33565b6301ffc9a760e01b14905083610e54565b635b5e139f60e01b81149150610e4d565b805180835260209291819084018484015e5f828201840152601f01601f1916010190565b600435906001600160a01b038216820361019d57565b602435906001600160a01b038216820361019d57565b606090600319011261019d576004356001600160a01b038116810361019d57906024356001600160a01b038116810361019d579060443590565b60243590811515820361019d57565b90601f8019910116810190811067ffffffffffffffff82111761051b57604052565b67ffffffffffffffff811161051b57601f01601f191660200190565b929192610f6082610f38565b91610f6e6040519384610f16565b82948184528183011161019d578281602093845f960137010152565b9080601f8301121561019d57816020610fa593359101610f54565b90565b90600182811c92168015610fd6575b6020831014610fc257565b634e487b7160e01b5f52602260045260245ffd5b91607f1691610fb7565b15610fe757565b60405162461bcd60e51b8152602060048201526014602482015273151bdad95b88191bd95cc81b9bdd08195e1a5cdd60621b6044820152606490fd5b5f818152600260205260409020546001600160a01b0316908115611045575090565b637e27328960e01b5f5260045260245ffd5b335f9081527f6d5257204ebe7d88fd91ae87941cb2dd9d8062b64ae5a2bd2d28ec40b9fbf6df602052604090205460ff161561108f57565b63e2517d3f60e01b5f52336004525f60245260445ffd5b5f81815260076020908152604080832033845290915290205460ff16156110ca5750565b63e2517d3f60e01b5f523360045260245260445ffd5b5f8181526007602090815260408083206001600160a01b038616845290915290205460ff16611166575f8181526007602090815260408083206001600160a01b0395909516808452949091528120805460ff19166001179055339291907f2f8788117e7eff1d82e926ec794901d17c78024a50270940304540a733656f0d9080a4600190565b50505f90565b5f8181526007602090815260408083206001600160a01b038616845290915290205460ff1615611166575f8181526007602090815260408083206001600160a01b0395909516808452949091528120805460ff19169055339291907ff6391f5c32d9c69d2a47ea670b442974b53935d1edc7fd64eb21e047a839171b9080a4600190565b5f818152600260205260409020546001600160a01b03908116921680151580611298575b50508161125f575b5f81815260026020526040812080546001600160a01b0319169055827fddf252ad1be2c89b69c2b068fc378daa952ba7f163c4a11628f55a4df523b3ef8280a490565b805f52600460205260405f206bffffffffffffffffffffffff60a01b8154169055815f52600360205260405f205f19815401905561121c565b806112d6575b156112a95780611214565b826112c15750637e27328960e01b5f5260045260245ffd5b63177e802f60e01b5f5260045260245260445ffd5b508083148015611305575b8061129e57505f828152600460205260409020546001600160a01b0316811461129e565b50825f52600560205260405f20815f5260205260ff60405f2054166112e1565b61132e81611023565b505f52600660205260405f2060405190815f82549261134c84610fa8565b80845293600181169081156113c85750600114611384575b5061137192500382610f16565b5f604051611380602082610f16565b5290565b90505f9291925260205f20905f915b8183106113ac575050906020611371928201015f611364565b6020919350806001915483858801015201910190918392611393565b90506020925061137194915060ff191682840152151560051b8201015f61136456fea2646970667358221220e72ed478d6bfc6beef6ecb8ce14254b841de7da19cc1d62d8e4837e1159ba2a864736f6c634300081e00332f8788117e7eff1d82e926ec794901d17c78024a50270940304540a733656f0d6d5257204ebe7d88fd91ae87941cb2dd9d8062b64ae5a2bd2d28ec40b9fbf6dfa4bfd7afe708e2e87e7f0e2ad9b4d545417e0f795f57b5c5ab5d799c565a04f4","linkReferences":{}},"methodIdentifiers":{"DEFAULT_ADMIN_ROLE()":"a217fddf","MINTER_ROLE()":"d5391393","approve(address,uint256)":"095ea7b3","balanceOf(address)":"70a08231","burn(uint256)":"42966c68","getApproved(uint256)":"081812fc","getCompanyId(uint256)":"a7089007","getRoleAdmin(bytes32)":"248a9ca3","getTokenState(uint256)":"f45fd0f3","grantRole(bytes32,address)":"2f2ff15d","hasRole(bytes32,address)":"91d14854","isApprovedForAll(address,address)":"e985e9c5","name()":"06fdde03","ownerOf(uint256)":"6352211e","renounceRole(bytes32,address)":"36568abe","revokeRole(bytes32,address)":"d547741f","safeMint(address,string,string)":"eca81d42","safeTransferFrom(address,address,uint256)":"42842e0e","safeTransferFrom(address,address,uint256,bytes)":"b88d4fde","setApprovalForAll(address,bool)":"a22cb465","setTokenState(uint256,bool)":"efbc6996","supportsInterface(bytes4)":"01ffc9a7","symbol()":"95d89b41","tokenURI(uint256)":"c87b56dd","transferFrom(address,address,uint256)":"23b872dd"},"id":60}