{"abi":[{"type":"function","name":"computeAddress","inputs":[{"name":"poolManager","type":"address","internalType":"contract IPoolManager"},{"name":"convexoLPs","type":"address","internalType":"contract IConvexoLPs"},{"name":"salt","type":"bytes32","internalType":"bytes32"}],"outputs":[{"name":"","type":"address","internalType":"address"}],"stateMutability":"view"},{"type":"function","name":"deploy","inputs":[{"name":"poolManager","type":"address","internalType":"contract IPoolManager"},{"name":"convexoLPs","type":"address","internalType":"contract IConvexoLPs"},{"name":"salt","type":"bytes32","internalType":"bytes32"}],"outputs":[{"name":"hook","type":"address","internalType":"contract CompliantLPHook"}],"stateMutability":"nonpayable"},{"type":"function","name":"findSalt","inputs":[{"name":"poolManager","type":"address","internalType":"contract IPoolManager"},{"name":"convexoLPs","type":"address","internalType":"contract IConvexoLPs"},{"name":"startingSalt","type":"bytes32","internalType":"bytes32"},{"name":"maxIterations","type":"uint256","internalType":"uint256"}],"outputs":[{"name":"salt","type":"bytes32","internalType":"bytes32"},{"name":"hookAddress","type":"address","internalType":"address"}],"stateMutability":"view"},{"type":"event","name":"HookDeployed","inputs":[{"name":"hook","type":"address","indexed":true,"internalType":"address"},{"name":"poolManager","type":"address","indexed":true,"internalType":"address"},{"name":"convexoLPs","type":"address","indexed":true,"internalType":"address"},{"name":"salt","type":"bytes32","indexed":false,"internalType":"bytes32"}],"anonymous":false}],"bytecode":{"object":"0x60808060405234601557610eee908161001a8239f35b5f80fdfe6080806040526004361015610012575f80fd5b5f3560e01c908163b0311079146101b857508063e60ccce4146101575763f7515b9a1461003d575f80fd5b3461015357602061012f6100a961013d6100e86100593661027f565b949187939193610a0e916100b760405196610076848601896102b9565b848852838801946104ab8639604080516001600160a01b0394851686820190815294909216602085015290968791840190565b03601f1981018752866102b9565b60405194859383850197518091895e840190838201905f8252519283915e01015f815203601f1981018352826102b9565b5190206040516001600160f81b03198682019081523060601b6bffffffffffffffffffffffff19166001820152601581019490945260358401919091529283906055840190565b03601f1981018452836102b9565b905190206040516001600160a01b039091168152f35b5f80fd5b34610153576080366003190112610153576004356001600160a01b038116810361015357602435906001600160a01b0382168203610153576040916101a39160643591604435916102db565b82519182526001600160a01b03166020820152f35b34610153576101c63661027f565b919092610a0e9081810181811067ffffffffffffffff82111761026b5761020b8685849388966104ab86396001600160a01b0391821681529116602082015260400190565b03905ff5918215610260576040519081526020936001600160a01b039384169390811692169083907fe641cc83e8152f05dd4288f2e09d7e600def31347871bb31058c82f56fee424d908690a4604051908152f35b6040513d5f823e3d90fd5b634e487b7160e01b5f52604160045260245ffd5b6060906003190112610153576004356001600160a01b038116810361015357906024356001600160a01b0381168103610153579060443590565b90601f8019910116810190811067ffffffffffffffff82111761026b57604052565b6102fe6100a9919593956020610a0e916100b760405196610076848601896102b9565b5190205f5b8381106103625760405162461bcd60e51b815260206004820152602a60248201527f4e6f2076616c69642073616c7420666f756e642077697468696e2069746572616044820152691d1a5bdb881b1a5b5a5d60b21b6064820152608490fd5b808501808611610496576040516001600160f81b0319602082019081526bffffffffffffffffffffffff193060601b1660218301526035820183905260558083018690528252906103b46075826102b9565b519020906001609d1b8216151580610487575b80610478575b8061046a575b8061045c575b8061044e575b80610440575b80610432575b80610424575b80610416575b610405575050600101610303565b95506001600160a01b031693505050565b50600160961b8216156103f7565b50600160971b8216156103f1565b50600160981b8216156103eb565b506001609a1b8216156103e5565b506001609c1b8216156103df565b506001609e1b8216156103d9565b506001609f1b8216156103d3565b50600160991b821615156103cd565b506001609b1b821615156103c7565b634e487b7160e01b5f52601160045260245ffdfe60c0346100a857601f610a0e38819003918201601f19168301916001600160401b038311848410176100ac5780849260409485528339810103126100a8578051906001600160a01b03821682036100a85760200151906001600160a01b03821682036100a85760805260a05260405161094d90816100c1823960805181610104015260a051818181610148015281816103ba015281816104b8015281816105a001526108420152f35b5f80fd5b634e487b7160e01b5f52604160045260245ffdfe60806040526004361015610011575f80fd5b5f3560e01c806321d0ee7014610559578063259982e514610471578063575e24b4146103305780636c2bbe7e146102e05780636fe7e6eb146102e55780639f063efc146102e0578063b47b2fb11461027b578063b6a8b0fa146100a8578063c4e833ce14610177578063d5585f0b14610133578063dc4c90d3146100ef578063dc98354e146100ad5763e1b4af69146100a8575f80fd5b610771565b346100eb5760e03660031901126100eb576100c6610641565b5060a03660231901126100eb576100db61075b565b50630a85dc2960e01b5f5260045ffd5b5f80fd5b346100eb575f3660031901126100eb576040517f00000000000000000000000000000000000000000000000000000000000000006001600160a01b03168152602090f35b346100eb575f3660031901126100eb576040517f00000000000000000000000000000000000000000000000000000000000000006001600160a01b03168152602090f35b346100eb575f3660031901126100eb575f610120604051610197816107c4565b8281528260208201528260408201528260608201528260808201528260a08201528260c08201528260e08201528261010082015201526101406040516101dc816107c4565b5f815260208101905f8252604081019060018252606081015f8152608082016001815260a083015f815260c08401916001835260e08501935f85526101206101008701965f885201965f8852604051985f8a5251151560208a015251151560408901525115156060880152511515608087015251151560a086015251151560c085015251151560e0840152511515610100830152511515610120820152f35b346100eb576101603660031901126100eb57610295610641565b5060a03660231901126100eb5760603660c31901126100eb576101443567ffffffffffffffff81116100eb576102cf903690600401610657565b5050630a85dc2960e01b5f5260045ffd5b6106e9565b346100eb576101003660031901126100eb576102ff610641565b5060a03660231901126100eb5761031461075b565b5060e4358060020b036100eb57630a85dc2960e01b5f5260045ffd5b346100eb576101403660031901126100eb5761034a610641565b60a03660231901126100eb5760603660c31901126100eb576101243567ffffffffffffffff81116100eb57610383903690600401610657565b505061038e81610817565b6040516370a0823160e01b81526001600160a01b039182166004820181905291602090829060249082907f0000000000000000000000000000000000000000000000000000000000000000165afa908115610466575f91610433575b5060207fb4c6779ceb4a20f448e76a0e11f39bd183cff9c9dbac53df6bfcc202e2eb32f191604051908152a260606040516315d7892d60e21b81525f60208201525f6040820152f35b90506020813d60201161045e575b8161044e602093836107f5565b810103126100eb575160206103ea565b3d9150610441565b6040513d5f823e3d90fd5b346100eb5761047f36610685565b5050505061048c81610817565b6040516370a0823160e01b81526001600160a01b039182166004820181905291602090829060249082907f0000000000000000000000000000000000000000000000000000000000000000165afa908115610466575f91610526575b5060207fb4c6779ceb4a20f448e76a0e11f39bd183cff9c9dbac53df6bfcc202e2eb32f191604051908152a260405163259982e560e01b8152602090f35b90506020813d602011610551575b81610541602093836107f5565b810103126100eb575160206104e8565b3d9150610534565b346100eb5761056736610685565b5050505061057481610817565b6040516370a0823160e01b81526001600160a01b039182166004820181905291602090829060249082907f0000000000000000000000000000000000000000000000000000000000000000165afa908115610466575f9161060e575b5060207fb4c6779ceb4a20f448e76a0e11f39bd183cff9c9dbac53df6bfcc202e2eb32f191604051908152a260405163021d0ee760e41b8152602090f35b90506020813d602011610639575b81610629602093836107f5565b810103126100eb575160206105d0565b3d915061061c565b600435906001600160a01b03821682036100eb57565b9181601f840112156100eb5782359167ffffffffffffffff83116100eb57602083818601950101116100eb57565b906101606003198301126100eb576004356001600160a01b03811681036100eb579160a06023198201126100eb57602491608060c3198301126100eb5760c491610144359067ffffffffffffffff82116100eb576106e591600401610657565b9091565b346100eb576101a03660031901126100eb576004356001600160a01b03811681036100eb575060a03660231901126100eb5760803660c31901126100eb576101843567ffffffffffffffff81116100eb57610748903690600401610657565b5050630a85dc2960e01b5f908152600490fd5b60c435906001600160a01b03821682036100eb57565b346100eb576101203660031901126100eb576004356001600160a01b03811681036100eb575060a03660231901126100eb576101043567ffffffffffffffff81116100eb57610748903690600401610657565b610140810190811067ffffffffffffffff8211176107e157604052565b634e487b7160e01b5f52604160045260245ffd5b90601f8019910116810190811067ffffffffffffffff8211176107e157604052565b6040516370a0823160e01b81526001600160a01b0391821660048201529190602090839060249082907f0000000000000000000000000000000000000000000000000000000000000000165afa918215610466575f926108e3575b5081156108d4575f805b838210806108cc575b156108b257506001905f19811461089e5781019061087c565b634e487b7160e01b5f52601160045260245ffd5b91925050156108bd57565b63ad9d099b60e01b5f5260045ffd5b508015610885565b630f28953360e21b5f5260045ffd5b9091506020813d60201161090f575b816108ff602093836107f5565b810103126100eb5751905f610872565b3d91506108f256fea2646970667358221220a1ef12f8b5efc07c01b109d78234da67601bffb71a4c7775458bd672319fd41e64736f6c634300081e0033a2646970667358221220082c4e3a8f19aa8590ffb5ece7d9fe346a6a0fefa2fe5d36392eb233e994fefc64736f6c634300081e0033","linkReferences":{}},"methodIdentifiers":{"computeAddress(address,address,bytes32)":"f7515b9a","deploy(address,address,bytes32)":"b0311079","findSalt(address,address,bytes32,uint256)":"e60ccce4"},"id":64}