{"abi":[{"type":"constructor","inputs":[{"name":"admin","type":"address","internalType":"address"}],"stateMutability":"nonpayable"},{"type":"function","name":"DEFAULT_ADMIN_ROLE","inputs":[],"outputs":[{"name":"","type":"bytes32","internalType":"bytes32"}],"stateMutability":"view"},{"type":"function","name":"POOL_MANAGER_ROLE","inputs":[],"outputs":[{"name":"","type":"bytes32","internalType":"bytes32"}],"stateMutability":"view"},{"type":"function","name":"getHookAddress","inputs":[{"name":"poolId","type":"bytes32","internalType":"bytes32"}],"outputs":[{"name":"","type":"address","internalType":"address"}],"stateMutability":"view"},{"type":"function","name":"getPool","inputs":[{"name":"poolId","type":"bytes32","internalType":"bytes32"}],"outputs":[{"name":"","type":"tuple","internalType":"struct PoolRegistry.PoolInfo","components":[{"name":"poolAddress","type":"address","internalType":"address"},{"name":"token0","type":"address","internalType":"address"},{"name":"token1","type":"address","internalType":"address"},{"name":"hookAddress","type":"address","internalType":"address"},{"name":"isActive","type":"bool","internalType":"bool"},{"name":"description","type":"string","internalType":"string"}]}],"stateMutability":"view"},{"type":"function","name":"getPoolCount","inputs":[],"outputs":[{"name":"","type":"uint256","internalType":"uint256"}],"stateMutability":"view"},{"type":"function","name":"getPoolIdAtIndex","inputs":[{"name":"index","type":"uint256","internalType":"uint256"}],"outputs":[{"name":"","type":"bytes32","internalType":"bytes32"}],"stateMutability":"view"},{"type":"function","name":"getRoleAdmin","inputs":[{"name":"role","type":"bytes32","internalType":"bytes32"}],"outputs":[{"name":"","type":"bytes32","internalType":"bytes32"}],"stateMutability":"view"},{"type":"function","name":"grantRole","inputs":[{"name":"role","type":"bytes32","internalType":"bytes32"},{"name":"account","type":"address","internalType":"address"}],"outputs":[],"stateMutability":"nonpayable"},{"type":"function","name":"hasRole","inputs":[{"name":"role","type":"bytes32","internalType":"bytes32"},{"name":"account","type":"address","internalType":"address"}],"outputs":[{"name":"","type":"bool","internalType":"bool"}],"stateMutability":"view"},{"type":"function","name":"isPoolActive","inputs":[{"name":"poolId","type":"bytes32","internalType":"bytes32"}],"outputs":[{"name":"","type":"bool","internalType":"bool"}],"stateMutability":"view"},{"type":"function","name":"poolExists","inputs":[{"name":"","type":"bytes32","internalType":"bytes32"}],"outputs":[{"name":"","type":"bool","internalType":"bool"}],"stateMutability":"view"},{"type":"function","name":"poolIds","inputs":[{"name":"","type":"uint256","internalType":"uint256"}],"outputs":[{"name":"","type":"bytes32","internalType":"bytes32"}],"stateMutability":"view"},{"type":"function","name":"pools","inputs":[{"name":"","type":"bytes32","internalType":"bytes32"}],"outputs":[{"name":"poolAddress","type":"address","internalType":"address"},{"name":"token0","type":"address","internalType":"address"},{"name":"token1","type":"address","internalType":"address"},{"name":"hookAddress","type":"address","internalType":"address"},{"name":"isActive","type":"bool","internalType":"bool"},{"name":"description","type":"string","internalType":"string"}],"stateMutability":"view"},{"type":"function","name":"registerPool","inputs":[{"name":"poolAddress","type":"address","internalType":"address"},{"name":"token0","type":"address","internalType":"address"},{"name":"token1","type":"address","internalType":"address"},{"name":"hookAddress","type":"address","internalType":"address"},{"name":"description","type":"string","internalType":"string"}],"outputs":[{"name":"poolId","type":"bytes32","internalType":"bytes32"}],"stateMutability":"nonpayable"},{"type":"function","name":"removePool","inputs":[{"name":"poolId","type":"bytes32","internalType":"bytes32"}],"outputs":[],"stateMutability":"nonpayable"},{"type":"function","name":"renounceRole","inputs":[{"name":"role","type":"bytes32","internalType":"bytes32"},{"name":"callerConfirmation","type":"address","internalType":"address"}],"outputs":[],"stateMutability":"nonpayable"},{"type":"function","name":"revokeRole","inputs":[{"name":"role","type":"bytes32","internalType":"bytes32"},{"name":"account","type":"address","internalType":"address"}],"outputs":[],"stateMutability":"nonpayable"},{"type":"function","name":"supportsInterface","inputs":[{"name":"interfaceId","type":"bytes4","internalType":"bytes4"}],"outputs":[{"name":"","type":"bool","internalType":"bool"}],"stateMutability":"view"},{"type":"function","name":"updatePoolStatus","inputs":[{"name":"poolId","type":"bytes32","internalType":"bytes32"},{"name":"isActive","type":"bool","internalType":"bool"}],"outputs":[],"stateMutability":"nonpayable"},{"type":"event","name":"PoolRegistered","inputs":[{"name":"poolId","type":"bytes32","indexed":true,"internalType":"bytes32"},{"name":"poolAddress","type":"address","indexed":true,"internalType":"address"},{"name":"hookAddress","type":"address","indexed":true,"internalType":"address"},{"name":"token0","type":"address","indexed":false,"internalType":"address"},{"name":"token1","type":"address","indexed":false,"internalType":"address"},{"name":"description","type":"string","indexed":false,"internalType":"string"}],"anonymous":false},{"type":"event","name":"PoolRemoved","inputs":[{"name":"poolId","type":"bytes32","indexed":true,"internalType":"bytes32"}],"anonymous":false},{"type":"event","name":"PoolUpdated","inputs":[{"name":"poolId","type":"bytes32","indexed":true,"internalType":"bytes32"},{"name":"isActive","type":"bool","indexed":false,"internalType":"bool"}],"anonymous":false},{"type":"event","name":"RoleAdminChanged","inputs":[{"name":"role","type":"bytes32","indexed":true,"internalType":"bytes32"},{"name":"previousAdminRole","type":"bytes32","indexed":true,"internalType":"bytes32"},{"name":"newAdminRole","type":"bytes32","indexed":true,"internalType":"bytes32"}],"anonymous":false},{"type":"event","name":"RoleGranted","inputs":[{"name":"role","type":"bytes32","indexed":true,"internalType":"bytes32"},{"name":"account","type":"address","indexed":true,"internalType":"address"},{"name":"sender","type":"address","indexed":true,"internalType":"address"}],"anonymous":false},{"type":"event","name":"RoleRevoked","inputs":[{"name":"role","type":"bytes32","indexed":true,"internalType":"bytes32"},{"name":"account","type":"address","indexed":true,"internalType":"address"},{"name":"sender","type":"address","indexed":true,"internalType":"address"}],"anonymous":false},{"type":"error","name":"AccessControlBadConfirmation","inputs":[]},{"type":"error","name":"AccessControlUnauthorizedAccount","inputs":[{"name":"account","type":"address","internalType":"address"},{"name":"neededRole","type":"bytes32","internalType":"bytes32"}]}],"bytecode":{"object":"0x60803461007257601f61133f38819003918201601f19168301916001600160401b038311848410176100765780849260209460405283398101031261007257516001600160a01b0381168103610072578061005c6100629261008a565b50610100565b5060405161114b90816101948239f35b5f80fd5b634e487b7160e01b5f52604160045260245ffd5b6001600160a01b0381165f9081525f51602061131f5f395f51905f52602052604090205460ff166100fb576001600160a01b03165f8181525f51602061131f5f395f51905f5260205260408120805460ff191660011790553391905f5160206112df5f395f51905f528180a4600190565b505f90565b6001600160a01b0381165f9081525f5160206112ff5f395f51905f52602052604090205460ff166100fb576001600160a01b03165f8181525f5160206112ff5f395f51905f5260205260408120805460ff191660011790553391907f6077685936c8169d09204a1d97db12e41713588c38e1d29a61867d3dcee98aff905f5160206112df5f395f51905f529080a460019056fe6080806040526004361015610012575f80fd5b5f3560e01c90816301ffc9a714610d4457508063248a9ca314610d12578063296d85f614610ce35780632f2ff15d14610ca657806336568abe14610c6257806356d7356814610c2857806369883b4e14610bff5780636e69f20114610b615780638eec5d7014610b4457806391d1485414610afc578063950bcd3d14610aaf578063a217fddf14610a95578063b5217bb4146109fd578063cf15bfca146109b0578063d547741f1461096c578063e4d8f8a614610793578063ed7d6e0b14610295578063f6c00927146101645763fcbf2cc7146100ed575f80fd5b346101605760203660031901126101605760043560025481101561012557610116602091610dad565b90549060031b1c604051908152f35b60405162461bcd60e51b8152602060048201526013602482015272496e646578206f7574206f6620626f756e647360681b6044820152606490fd5b5f80fd5b3461016057602036600319011261016057600435606060a060405161018881610e11565b5f81525f60208201525f60408201525f838201525f60808201520152805f5260036020526101bc60ff60405f205416610f13565b5f52600160205260405f206040516101d381610e11565b81546001600160a01b0390811682526001830154811660208301908152600284015482166040840190815260038501549283166060850190815260a09390931c60ff161515608085019081529194610291939192919061023590600401610e4f565b60a086810191825260408051602080825298516001600160a01b039081169982019990995298518816908901529351861660608801529051909416608086015251151590840152905160c08084015282919060e0830190610eef565b0390f35b346101605760a0366003190112610160576004356001600160a01b03811690818103610160576102c3610d97565b604435929091906001600160a01b038416808503610160576064356001600160a01b0381169390849003610160576084359467ffffffffffffffff8611610160573660238701121561016057856004013567ffffffffffffffff811161059d576040519661033b601f8301601f191660200189610e2d565b818852366024838301011161016057815f92602460209301838b013788010152610363610f66565b8315610757576001600160a01b0381169687156107195783156106db57851561069f576040519160208301936001600160601b03199060601b1684526001600160601b03199060601b1660348301526001600160601b03199060601b166048820152603c81526103d4605c82610e2d565b51902093845f52600360205260ff60405f20541661065a576040516103f881610e11565b838152602080820188815260408084018681526060850189815260016080870181815260a08089018a81525f8f81529884905295909720975188546001600160a01b03199081166001600160a01b03928316178a55965192890180548816938216939093179092559251600288018054909616908216179094555160038601805492516001600160a81b0319909316919094161790151590931b60ff60a01b1692909217905590600401905180519067ffffffffffffffff821161059d5781906104c28454610dd9565b601f811161061f575b50602090601f83116001146105bc575f926105b1575b50508160011b915f199060031b1c19161790555b600254916801000000000000000083101561059d576020966105927f0b1570840f63ef68cdf90c7cb2b89b92819a7f319aa66a031150c3c5402e6e40938861055d610547886001849a01600255610dad565b819391549060031b91821b915f19901b19161790565b9055855f5260038a5260405f20600160ff1982541617905560405193849384528a840152606060408401526060830190610eef565b0390a4604051908152f35b634e487b7160e01b5f52604160045260245ffd5b0151905089806104e1565b5f8581528281209350601f198516905b81811061060757509084600195949392106105ef575b505050811b0190556104f5565b01515f1960f88460031b161c191690558980806105e2565b929360206001819287860151815501950193016105cc565b61064a90855f5260205f20601f850160051c81019160208610610650575b601f0160051c0190610f50565b8a6104cb565b909150819061063d565b60405162461bcd60e51b815260206004820152601760248201527f506f6f6c20616c726561647920726567697374657265640000000000000000006044820152606490fd5b60405162461bcd60e51b8152602060048201526014602482015273496e76616c696420686f6f6b206164647265737360601b6044820152606490fd5b60405162461bcd60e51b8152602060048201526016602482015275496e76616c696420746f6b656e31206164647265737360501b6044820152606490fd5b60405162461bcd60e51b8152602060048201526016602482015275496e76616c696420746f6b656e30206164647265737360501b6044820152606490fd5b60405162461bcd60e51b8152602060048201526014602482015273496e76616c696420706f6f6c206164647265737360601b6044820152606490fd5b3461016057602036600319011261016057335f9081527fad3228b676f7d3cd4284a5443f17f1962b36e491b30a40b2405849e597ba5fb560205260409020546004359060ff161561095557805f5260036020526107f660ff60405f205416610f13565b805f526001602052600460405f205f81555f60018201555f60028201555f6003820155016108248154610dd9565b9081610912575b50505f818152600360205260408120805460ff191690555b6002548082101561090b578261085883610dad565b90549060031b1c1461086d5750600101610843565b5f1981019081116108f75761054761088761089492610dad565b90549060031b1c92610dad565b905560025480156108e3575f19016108ab81610dad565b8154905f199060031b1b191690556002555b7fcd93dc3f69ffce37f6698ff591a9d276b05fd5c17df2a1c8750daae91222df6f5f80a2005b634e487b7160e01b5f52603160045260245ffd5b634e487b7160e01b5f52601160045260245ffd5b50506108bd565b81601f5f93116001146109295750555b818061082b565b8183526020832061094591601f0160051c810190600101610f50565b8082528160208120915555610922565b63e2517d3f60e01b5f52336004525f60245260445ffd5b34610160576040366003190112610160576109ae60043561098b610d97565b906109a96109a4825f525f602052600160405f20015490565b610fd5565b611095565b005b3461016057602036600319011261016057600435805f5260036020526109dc60ff60405f205416610f13565b5f526001602052602060018060a01b03600360405f20015416604051908152f35b34610160576020366003190112610160576004355f52600160205260405f2060018060a01b0381541661029160018060a01b036001840154169260ff60018060a01b0360028301541691610a58600460038301549201610e4f565b9260405196879687526020870152604086015260018060a01b038116606086015260a01c161515608084015260c060a084015260c0830190610eef565b34610160575f3660031901126101605760206040515f8152f35b3461016057602036600319011261016057600435805f526003602052610adb60ff60405f205416610f13565b5f526001602052602060ff600360405f20015460a01c166040519015158152f35b3461016057604036600319011261016057610b15610d97565b6004355f525f60205260405f209060018060a01b03165f52602052602060ff60405f2054166040519015158152f35b34610160575f366003190112610160576020600254604051908152f35b346101605760403660031901126101605760043560243580151590818103610160577f132f01581df31b06d977477c9531c80198665ff487d67f7ead9cd6f8e4b0fdf791610bf6602092610bb3610f66565b855f5260038452610bca60ff60405f205416610f13565b5f8681526001855260409020600301805460ff60a01b191691151560a01b60ff60a01b16919091179055565b604051908152a2005b346101605760203660031901126101605760043560025481101561016057610116602091610dad565b34610160575f3660031901126101605760206040517f6077685936c8169d09204a1d97db12e41713588c38e1d29a61867d3dcee98aff8152f35b3461016057604036600319011261016057610c7b610d97565b336001600160a01b03821603610c97576109ae90600435611095565b63334bd91960e11b5f5260045ffd5b34610160576040366003190112610160576109ae600435610cc5610d97565b90610cde6109a4825f525f602052600160405f20015490565b61100d565b34610160576020366003190112610160576004355f526003602052602060ff60405f2054166040519015158152f35b34610160576020366003190112610160576020610d3c6004355f525f602052600160405f20015490565b604051908152f35b34610160576020366003190112610160576004359063ffffffff60e01b821680920361016057602091637965db0b60e01b8114908115610d86575b5015158152f35b6301ffc9a760e01b14905083610d7f565b602435906001600160a01b038216820361016057565b600254811015610dc55760025f5260205f2001905f90565b634e487b7160e01b5f52603260045260245ffd5b90600182811c92168015610e07575b6020831014610df357565b634e487b7160e01b5f52602260045260245ffd5b91607f1691610de8565b60c0810190811067ffffffffffffffff82111761059d57604052565b90601f8019910116810190811067ffffffffffffffff82111761059d57604052565b9060405191825f825492610e6284610dd9565b8084529360018116908115610ecd5750600114610e89575b50610e8792500383610e2d565b565b90505f9291925260205f20905f915b818310610eb1575050906020610e87928201015f610e7a565b6020919350806001915483858901015201910190918492610e98565b905060209250610e8794915060ff191682840152151560051b8201015f610e7a565b805180835260209291819084018484015e5f828201840152601f01601f1916010190565b15610f1a57565b60405162461bcd60e51b815260206004820152600e60248201526d141bdbdb081b9bdd08199bdd5b9960921b6044820152606490fd5b818110610f5b575050565b5f8155600101610f50565b335f9081527f729ef9451dd492832bd2a98139702ced95dfa0cec7e99526dbbcb957abcbc476602052604090205460ff1615610f9e57565b63e2517d3f60e01b5f52336004527f6077685936c8169d09204a1d97db12e41713588c38e1d29a61867d3dcee98aff60245260445ffd5b5f8181526020818152604080832033845290915290205460ff1615610ff75750565b63e2517d3f60e01b5f523360045260245260445ffd5b5f818152602081815260408083206001600160a01b038616845290915290205460ff1661108f575f818152602081815260408083206001600160a01b0395909516808452949091528120805460ff19166001179055339291907f2f8788117e7eff1d82e926ec794901d17c78024a50270940304540a733656f0d9080a4600190565b50505f90565b5f818152602081815260408083206001600160a01b038616845290915290205460ff161561108f575f818152602081815260408083206001600160a01b0395909516808452949091528120805460ff19169055339291907ff6391f5c32d9c69d2a47ea670b442974b53935d1edc7fd64eb21e047a839171b9080a460019056fea26469706673582212205d81e55ac715f19dcd93df1d57e696c2ca49ee48a29e5aa4db2d198664eb90ae64736f6c634300081e00332f8788117e7eff1d82e926ec794901d17c78024a50270940304540a733656f0d729ef9451dd492832bd2a98139702ced95dfa0cec7e99526dbbcb957abcbc476ad3228b676f7d3cd4284a5443f17f1962b36e491b30a40b2405849e597ba5fb5","linkReferences":{}},"methodIdentifiers":{"DEFAULT_ADMIN_ROLE()":"a217fddf","POOL_MANAGER_ROLE()":"56d73568","getHookAddress(bytes32)":"cf15bfca","getPool(bytes32)":"f6c00927","getPoolCount()":"8eec5d70","getPoolIdAtIndex(uint256)":"fcbf2cc7","getRoleAdmin(bytes32)":"248a9ca3","grantRole(bytes32,address)":"2f2ff15d","hasRole(bytes32,address)":"91d14854","isPoolActive(bytes32)":"950bcd3d","poolExists(bytes32)":"296d85f6","poolIds(uint256)":"69883b4e","pools(bytes32)":"b5217bb4","registerPool(address,address,address,address,string)":"ed7d6e0b","removePool(bytes32)":"e4d8f8a6","renounceRole(bytes32,address)":"36568abe","revokeRole(bytes32,address)":"d547741f","supportsInterface(bytes4)":"01ffc9a7","updatePoolStatus(bytes32,bool)":"6e69f201"},"id":55}