{"abi":[{"type":"constructor","inputs":[{"name":"admin","type":"address","internalType":"address"}],"stateMutability":"nonpayable"},{"type":"function","name":"DEFAULT_ADMIN_ROLE","inputs":[],"outputs":[{"name":"","type":"bytes32","internalType":"bytes32"}],"stateMutability":"view"},{"type":"function","name":"MAX_STALENESS","inputs":[],"outputs":[{"name":"","type":"uint256","internalType":"uint256"}],"stateMutability":"view"},{"type":"function","name":"PRICE_UPDATER_ROLE","inputs":[],"outputs":[{"name":"","type":"bytes32","internalType":"bytes32"}],"stateMutability":"view"},{"type":"function","name":"convertLocalToUSDC","inputs":[{"name":"pair","type":"uint8","internalType":"enum PriceFeedManager.CurrencyPair"},{"name":"localAmount","type":"uint256","internalType":"uint256"}],"outputs":[{"name":"usdcAmount","type":"uint256","internalType":"uint256"}],"stateMutability":"view"},{"type":"function","name":"convertUSDCToLocal","inputs":[{"name":"pair","type":"uint8","internalType":"enum PriceFeedManager.CurrencyPair"},{"name":"usdcAmount","type":"uint256","internalType":"uint256"}],"outputs":[{"name":"localAmount","type":"uint256","internalType":"uint256"}],"stateMutability":"view"},{"type":"function","name":"deactivatePriceFeed","inputs":[{"name":"pair","type":"uint8","internalType":"enum PriceFeedManager.CurrencyPair"}],"outputs":[],"stateMutability":"nonpayable"},{"type":"function","name":"getLatestPrice","inputs":[{"name":"pair","type":"uint8","internalType":"enum PriceFeedManager.CurrencyPair"}],"outputs":[{"name":"price","type":"int256","internalType":"int256"},{"name":"decimals","type":"uint8","internalType":"uint8"}],"stateMutability":"view"},{"type":"function","name":"getPriceFeed","inputs":[{"name":"pair","type":"uint8","internalType":"enum PriceFeedManager.CurrencyPair"}],"outputs":[{"name":"","type":"tuple","internalType":"struct PriceFeedManager.PriceFeed","components":[{"name":"aggregator","type":"address","internalType":"contract IAggregatorV3"},{"name":"decimals","type":"uint8","internalType":"uint8"},{"name":"description","type":"string","internalType":"string"},{"name":"isActive","type":"bool","internalType":"bool"},{"name":"heartbeat","type":"uint256","internalType":"uint256"}]}],"stateMutability":"view"},{"type":"function","name":"getPriceWithTimestamp","inputs":[{"name":"pair","type":"uint8","internalType":"enum PriceFeedManager.CurrencyPair"}],"outputs":[{"name":"price","type":"int256","internalType":"int256"},{"name":"decimals","type":"uint8","internalType":"uint8"},{"name":"updatedAt","type":"uint256","internalType":"uint256"}],"stateMutability":"view"},{"type":"function","name":"getRoleAdmin","inputs":[{"name":"role","type":"bytes32","internalType":"bytes32"}],"outputs":[{"name":"","type":"bytes32","internalType":"bytes32"}],"stateMutability":"view"},{"type":"function","name":"grantRole","inputs":[{"name":"role","type":"bytes32","internalType":"bytes32"},{"name":"account","type":"address","internalType":"address"}],"outputs":[],"stateMutability":"nonpayable"},{"type":"function","name":"hasRole","inputs":[{"name":"role","type":"bytes32","internalType":"bytes32"},{"name":"account","type":"address","internalType":"address"}],"outputs":[{"name":"","type":"bool","internalType":"bool"}],"stateMutability":"view"},{"type":"function","name":"isPriceFeedActive","inputs":[{"name":"pair","type":"uint8","internalType":"enum PriceFeedManager.CurrencyPair"}],"outputs":[{"name":"","type":"bool","internalType":"bool"}],"stateMutability":"view"},{"type":"function","name":"priceFeeds","inputs":[{"name":"","type":"uint8","internalType":"enum PriceFeedManager.CurrencyPair"}],"outputs":[{"name":"aggregator","type":"address","internalType":"contract IAggregatorV3"},{"name":"decimals","type":"uint8","internalType":"uint8"},{"name":"description","type":"string","internalType":"string"},{"name":"isActive","type":"bool","internalType":"bool"},{"name":"heartbeat","type":"uint256","internalType":"uint256"}],"stateMutability":"view"},{"type":"function","name":"renounceRole","inputs":[{"name":"role","type":"bytes32","internalType":"bytes32"},{"name":"callerConfirmation","type":"address","internalType":"address"}],"outputs":[],"stateMutability":"nonpayable"},{"type":"function","name":"revokeRole","inputs":[{"name":"role","type":"bytes32","internalType":"bytes32"},{"name":"account","type":"address","internalType":"address"}],"outputs":[],"stateMutability":"nonpayable"},{"type":"function","name":"setPriceFeed","inputs":[{"name":"pair","type":"uint8","internalType":"enum PriceFeedManager.CurrencyPair"},{"name":"aggregatorAddress","type":"address","internalType":"address"},{"name":"heartbeat","type":"uint256","internalType":"uint256"}],"outputs":[],"stateMutability":"nonpayable"},{"type":"function","name":"supportsInterface","inputs":[{"name":"interfaceId","type":"bytes4","internalType":"bytes4"}],"outputs":[{"name":"","type":"bool","internalType":"bool"}],"stateMutability":"view"},{"type":"event","name":"PriceFeedDeactivated","inputs":[{"name":"pair","type":"uint8","indexed":true,"internalType":"enum PriceFeedManager.CurrencyPair"}],"anonymous":false},{"type":"event","name":"PriceFeedUpdated","inputs":[{"name":"pair","type":"uint8","indexed":true,"internalType":"enum PriceFeedManager.CurrencyPair"},{"name":"aggregator","type":"address","indexed":true,"internalType":"address"},{"name":"description","type":"string","indexed":false,"internalType":"string"}],"anonymous":false},{"type":"event","name":"RoleAdminChanged","inputs":[{"name":"role","type":"bytes32","indexed":true,"internalType":"bytes32"},{"name":"previousAdminRole","type":"bytes32","indexed":true,"internalType":"bytes32"},{"name":"newAdminRole","type":"bytes32","indexed":true,"internalType":"bytes32"}],"anonymous":false},{"type":"event","name":"RoleGranted","inputs":[{"name":"role","type":"bytes32","indexed":true,"internalType":"bytes32"},{"name":"account","type":"address","indexed":true,"internalType":"address"},{"name":"sender","type":"address","indexed":true,"internalType":"address"}],"anonymous":false},{"type":"event","name":"RoleRevoked","inputs":[{"name":"role","type":"bytes32","indexed":true,"internalType":"bytes32"},{"name":"account","type":"address","indexed":true,"internalType":"address"},{"name":"sender","type":"address","indexed":true,"internalType":"address"}],"anonymous":false},{"type":"error","name":"AccessControlBadConfirmation","inputs":[]},{"type":"error","name":"AccessControlUnauthorizedAccount","inputs":[{"name":"account","type":"address","internalType":"address"},{"name":"neededRole","type":"bytes32","internalType":"bytes32"}]},{"type":"error","name":"InvalidPrice","inputs":[]},{"type":"error","name":"PriceFeedNotActive","inputs":[]},{"type":"error","name":"StalePriceData","inputs":[]}],"bytecode":{"object":"0x60803461007257601f6111e538819003918201601f19168301916001600160401b038311848410176100765780849260209460405283398101031261007257516001600160a01b0381168103610072578061005c6100629261008a565b50610100565b50604051610ff190816101948239f35b5f80fd5b634e487b7160e01b5f52604160045260245ffd5b6001600160a01b0381165f9081525f5160206111c55f395f51905f52602052604090205460ff166100fb576001600160a01b03165f8181525f5160206111c55f395f51905f5260205260408120805460ff191660011790553391905f5160206111855f395f51905f528180a4600190565b505f90565b6001600160a01b0381165f9081525f5160206111a55f395f51905f52602052604090205460ff166100fb576001600160a01b03165f8181525f5160206111a55f395f51905f5260205260408120805460ff191660011790553391907fd96ba01d6560c2ab35f2940dd8d70c5f5fe06236c72674237120515918198fb0905f5160206111855f395f51905f529080a460019056fe6080806040526004361015610012575f80fd5b5f3560e01c90816301ffc9a714610aed575080630c20a01f14610ab4578063248a9ca314610a8a5780632a6a7a0714610a075780632f2ff15d146109ca57806336568abe146109865780634075653f1461095057806391d148541461090857806392ee113d14610818578063a217fddf146107fe578063ab42aea1146107c5578063acbe2432146103bd578063bad680bb14610380578063c750f321146102dc578063caca95a4146102c0578063d3d0ecb714610164578063d547741f146101205763fb8d8101146100e2575f80fd5b3461011c575f36600319011261011c5760206040517fd96ba01d6560c2ab35f2940dd8d70c5f5fe06236c72674237120515918198fb08152f35b5f80fd5b3461011c57604036600319011261011c5761016260043561013f610ca5565b9061015d610158825f525f602052600160405f20015490565b610e7b565b610f3b565b005b3461011c57602036600319011261011c57600435600481101561011c5761018a90610b40565b60405161019681610ba3565b81546001600160a01b038116825260a01c60ff1660208201908152916101be60018201610be1565b6040830152600360ff600283015416159182156060850152015460808301526102b15751604051633fabe5a360e21b81529060a090829060049082906001600160a01b03165afa9081156102a6575f915f925f925f9261026d575b505f84131561025f5769ffffffffffffffffffff8091169116106102505760ff606093511660405192835260208301526040820152f35b630d57861b60e21b5f5260045ffd5b62bfc92160e01b5f5260045ffd5b92505050610293915060a03d60a01161029f575b61028b8183610bbf565b810190610cf1565b92939092915085610219565b503d610281565b6040513d5f823e3d90fd5b6317f42edf60e31b5f5260045ffd5b3461011c575f36600319011261011c576020604051610e108152f35b3461011c57602036600319011261011c57600435600481101561011c57335f9081527fad3228b676f7d3cd4284a5443f17f1962b36e491b30a40b2405849e597ba5fb5602052604090205460ff161561036957600261033a82610b40565b01805460ff191690557f0ee3f4121536a07d4b6b05aeae9b6d9cb55bf5fcbf4a2cf83ad92720717e368e5f80a2005b63e2517d3f60e01b5f52336004525f60245260445ffd5b3461011c5760206103b56103a36103af6103a961039c36610cbb565b9390610d26565b93610e4a565b91610e39565b90610e5d565b604051908152f35b3461011c57606036600319011261011c57600435600481101561011c576103e2610ca5565b335f9081527fa1f9a07a38f9bd607bcb708ae5358a1ce4e79f14575e0c448403e6797e53e607602052604090205460ff161561078e576001600160a01b03169081156107495760405163313ce56760e01b8152602081600481865afa9081156102a6575f9161070d575b50604051633942720b60e11b8152905f82600481875afa9182156102a6575f92610681575b506040519061047f82610ba3565b84825260ff602083019116815260408201838152606083019060018252608084019260443584526104af87610b40565b9451855491516001600160a81b03199092166001600160a01b03919091161760a09190911b60ff60a01b16178455518051600185019167ffffffffffffffff821161066d576104fe8354610b6b565b601f8111610628575b50602090601f831160011461059b5792827fc004187bca2efaa07adc4f5440acdd5f7a695d5e0afc1532924ad0204e02a34998969361058b9896936003965f92610590575b50508160011b915f1990871b1c19161790555b600284019051151560ff8019835416911617905551910155604051918291602083526020830190610c81565b0390a3005b015190508c8061054c565b90601f19831691845f52815f20925f5b81811061061057509361058b98969360039693600193837fc004187bca2efaa07adc4f5440acdd5f7a695d5e0afc1532924ad0204e02a3499d9b98106105f9575b505050811b01905561055f565b01515f1983891b60f8161c191690558c80806105ec565b929360206001819287860151815501950193016105ab565b835f5260205f20601f840160051c81019160208510610663575b601f0160051c01905b8181106106585750610507565b5f815560010161064b565b9091508190610642565b634e487b7160e01b5f52604160045260245ffd5b9091503d805f833e6106938183610bbf565b81019060208183031261011c5780519067ffffffffffffffff821161011c570181601f8201121561011c5780519067ffffffffffffffff821161066d57604051926106e8601f8401601f191660200185610bbf565b8284526020838301011161011c57815f9260208093018386015e830101529084610471565b90506020813d602011610741575b8161072860209383610bbf565b8101031261011c575160ff8116810361011c578361044c565b3d915061071b565b60405162461bcd60e51b815260206004820152601a60248201527f496e76616c69642061676772656761746f7220616464726573730000000000006044820152606490fd5b63e2517d3f60e01b5f52336004527fd96ba01d6560c2ab35f2940dd8d70c5f5fe06236c72674237120515918198fb060245260445ffd5b3461011c57602036600319011261011c57600435600481101561011c5760ff60026107f1602093610b40565b0154166040519015158152f35b3461011c575f36600319011261011c5760206040515f8152f35b3461011c57602036600319011261011c57600435600481101561011c57610865905f608060405161084881610ba3565b828152826020820152606060408201528260608201520152610b40565b60405161087181610ba3565b81546001600160a01b038116825260a01c60ff16602082019081529161089960018201610be1565b604083019081526108f5600360ff600285015416936060860194151585520154916080850192835260ff6040519687966020885260018060a01b039051166020880152511660408601525160a0606086015260c0850190610c81565b9151151560808401525160a08301520390f35b3461011c57604036600319011261011c57610921610ca5565b6004355f525f60205260405f209060018060a01b03165f52602052602060ff60405f2054166040519015158152f35b3461011c5760206103b561097b61098161097361096c36610cbb565b9190610d26565b939093610e39565b90610e4a565b610e5d565b3461011c57604036600319011261011c5761099f610ca5565b336001600160a01b038216036109bb5761016290600435610f3b565b63334bd91960e11b5f5260045ffd5b3461011c57604036600319011261011c576101626004356109e9610ca5565b90610a02610158825f525f602052600160405f20015490565b610eb3565b3461011c57602036600319011261011c57600435600481101561011c57610a2f60ff91610b40565b805490610a3e60018201610be1565b610a796003856002850154169301549160405195869560018060a01b038116875260a01c16602086015260a0604086015260a0850190610c81565b911515606084015260808301520390f35b3461011c57602036600319011261011c5760206103b56004355f525f602052600160405f20015490565b3461011c57602036600319011261011c57600435600481101561011c5760ff610ade604092610d26565b83519182529091166020820152f35b3461011c57602036600319011261011c576004359063ffffffff60e01b821680920361011c57602091637965db0b60e01b8114908115610b2f575b5015158152f35b6301ffc9a760e01b14905083610b28565b6004811015610b57575f52600160205260405f2090565b634e487b7160e01b5f52602160045260245ffd5b90600182811c92168015610b99575b6020831014610b8557565b634e487b7160e01b5f52602260045260245ffd5b91607f1691610b7a565b60a0810190811067ffffffffffffffff82111761066d57604052565b90601f8019910116810190811067ffffffffffffffff82111761066d57604052565b9060405191825f825492610bf484610b6b565b8084529360018116908115610c5f5750600114610c1b575b50610c1992500383610bbf565b565b90505f9291925260205f20905f915b818310610c43575050906020610c19928201015f610c0c565b6020919350806001915483858901015201910190918492610c2a565b905060209250610c1994915060ff191682840152151560051b8201015f610c0c565b805180835260209291819084018484015e5f828201840152601f01601f1916010190565b602435906001600160a01b038216820361011c57565b604090600319011261011c57600435600481101561011c579060243590565b519069ffffffffffffffffffff8216820361011c57565b908160a091031261011c57610d0581610cda565b91602082015191604081015191610d23608060608401519301610cda565b90565b610d2f90610b40565b9060405191610d3d83610ba3565b80546001600160a01b038116845260a01c60ff166020840190815290610d6560018201610be1565b6040850152600360ff600283015416159182156060870152015490608085019182526102b1579251604051633fabe5a360e21b8152939060a090859060049082906001600160a01b03165afa9081156102a6575f905f955f905f94610e0e575b50420390428211610dfa575110610250575f85131561025f5769ffffffffffffffffffff809116911610610250575160ff1690565b634e487b7160e01b5f52601160045260245ffd5b9250509450610e2c915060a03d60a01161029f5761028b8183610bbf565b939096915091955f610dc5565b60ff16604d8111610dfa57600a0a90565b81810292918115918404141715610dfa57565b8115610e67570490565b634e487b7160e01b5f52601260045260245ffd5b5f8181526020818152604080832033845290915290205460ff1615610e9d5750565b63e2517d3f60e01b5f523360045260245260445ffd5b5f818152602081815260408083206001600160a01b038616845290915290205460ff16610f35575f818152602081815260408083206001600160a01b0395909516808452949091528120805460ff19166001179055339291907f2f8788117e7eff1d82e926ec794901d17c78024a50270940304540a733656f0d9080a4600190565b50505f90565b5f818152602081815260408083206001600160a01b038616845290915290205460ff1615610f35575f818152602081815260408083206001600160a01b0395909516808452949091528120805460ff19169055339291907ff6391f5c32d9c69d2a47ea670b442974b53935d1edc7fd64eb21e047a839171b9080a460019056fea26469706673582212206f3a4f85c368e97041e5f1b1768b72e64231e579e844ecae67d6c606dc2fc9a264736f6c634300081e00332f8788117e7eff1d82e926ec794901d17c78024a50270940304540a733656f0da1f9a07a38f9bd607bcb708ae5358a1ce4e79f14575e0c448403e6797e53e607ad3228b676f7d3cd4284a5443f17f1962b36e491b30a40b2405849e597ba5fb5","linkReferences":{}},"methodIdentifiers":{"DEFAULT_ADMIN_ROLE()":"a217fddf","MAX_STALENESS()":"caca95a4","PRICE_UPDATER_ROLE()":"fb8d8101","convertLocalToUSDC(uint8,uint256)":"4075653f","convertUSDCToLocal(uint8,uint256)":"bad680bb","deactivatePriceFeed(uint8)":"c750f321","getLatestPrice(uint8)":"0c20a01f","getPriceFeed(uint8)":"92ee113d","getPriceWithTimestamp(uint8)":"d3d0ecb7","getRoleAdmin(bytes32)":"248a9ca3","grantRole(bytes32,address)":"2f2ff15d","hasRole(bytes32,address)":"91d14854","isPriceFeedActive(uint8)":"ab42aea1","priceFeeds(uint8)":"2a6a7a07","renounceRole(bytes32,address)":"36568abe","revokeRole(bytes32,address)":"d547741f","setPriceFeed(uint8,address,uint256)":"acbe2432","supportsInterface(bytes4)":"01ffc9a7"},"id":56}