{"abi":[{"type":"constructor","inputs":[{"name":"admin","type":"address","internalType":"address"},{"name":"_usdc","type":"address","internalType":"address"},{"name":"_protocolFeeCollector","type":"address","internalType":"address"},{"name":"_contractSigner","type":"address","internalType":"contract ContractSigner"},{"name":"_reputationManager","type":"address","internalType":"contract ReputationManager"}],"stateMutability":"nonpayable"},{"type":"function","name":"DEFAULT_ADMIN_ROLE","inputs":[],"outputs":[{"name":"","type":"bytes32","internalType":"bytes32"}],"stateMutability":"view"},{"type":"function","name":"VAULT_CREATOR_ROLE","inputs":[],"outputs":[{"name":"","type":"bytes32","internalType":"bytes32"}],"stateMutability":"view"},{"type":"function","name":"contractSigner","inputs":[],"outputs":[{"name":"","type":"address","internalType":"contract ContractSigner"}],"stateMutability":"view"},{"type":"function","name":"createVault","inputs":[{"name":"principalAmount","type":"uint256","internalType":"uint256"},{"name":"interestRate","type":"uint256","internalType":"uint256"},{"name":"protocolFeeRate","type":"uint256","internalType":"uint256"},{"name":"maturityDate","type":"uint256","internalType":"uint256"},{"name":"name","type":"string","internalType":"string"},{"name":"symbol","type":"string","internalType":"string"}],"outputs":[{"name":"vaultId","type":"uint256","internalType":"uint256"},{"name":"vaultAddress","type":"address","internalType":"address"}],"stateMutability":"nonpayable"},{"type":"function","name":"getRoleAdmin","inputs":[{"name":"role","type":"bytes32","internalType":"bytes32"}],"outputs":[{"name":"","type":"bytes32","internalType":"bytes32"}],"stateMutability":"view"},{"type":"function","name":"getVault","inputs":[{"name":"vaultId","type":"uint256","internalType":"uint256"}],"outputs":[{"name":"","type":"address","internalType":"address"}],"stateMutability":"view"},{"type":"function","name":"getVaultAddressAtIndex","inputs":[{"name":"index","type":"uint256","internalType":"uint256"}],"outputs":[{"name":"","type":"address","internalType":"address"}],"stateMutability":"view"},{"type":"function","name":"getVaultCount","inputs":[],"outputs":[{"name":"","type":"uint256","internalType":"uint256"}],"stateMutability":"view"},{"type":"function","name":"grantRole","inputs":[{"name":"role","type":"bytes32","internalType":"bytes32"},{"name":"account","type":"address","internalType":"address"}],"outputs":[],"stateMutability":"nonpayable"},{"type":"function","name":"hasRole","inputs":[{"name":"role","type":"bytes32","internalType":"bytes32"},{"name":"account","type":"address","internalType":"address"}],"outputs":[{"name":"","type":"bool","internalType":"bool"}],"stateMutability":"view"},{"type":"function","name":"protocolFeeCollector","inputs":[],"outputs":[{"name":"","type":"address","internalType":"address"}],"stateMutability":"view"},{"type":"function","name":"renounceRole","inputs":[{"name":"role","type":"bytes32","internalType":"bytes32"},{"name":"callerConfirmation","type":"address","internalType":"address"}],"outputs":[],"stateMutability":"nonpayable"},{"type":"function","name":"reputationManager","inputs":[],"outputs":[{"name":"","type":"address","internalType":"contract ReputationManager"}],"stateMutability":"view"},{"type":"function","name":"revokeRole","inputs":[{"name":"role","type":"bytes32","internalType":"bytes32"},{"name":"account","type":"address","internalType":"address"}],"outputs":[],"stateMutability":"nonpayable"},{"type":"function","name":"supportsInterface","inputs":[{"name":"interfaceId","type":"bytes4","internalType":"bytes4"}],"outputs":[{"name":"","type":"bool","internalType":"bool"}],"stateMutability":"view"},{"type":"function","name":"updateProtocolFeeCollector","inputs":[{"name":"newCollector","type":"address","internalType":"address"}],"outputs":[],"stateMutability":"nonpayable"},{"type":"function","name":"usdc","inputs":[],"outputs":[{"name":"","type":"address","internalType":"address"}],"stateMutability":"view"},{"type":"function","name":"vaultAddresses","inputs":[{"name":"","type":"uint256","internalType":"uint256"}],"outputs":[{"name":"","type":"address","internalType":"address"}],"stateMutability":"view"},{"type":"function","name":"vaults","inputs":[{"name":"","type":"uint256","internalType":"uint256"}],"outputs":[{"name":"","type":"address","internalType":"address"}],"stateMutability":"view"},{"type":"event","name":"ProtocolFeeCollectorUpdated","inputs":[{"name":"oldCollector","type":"address","indexed":true,"internalType":"address"},{"name":"newCollector","type":"address","indexed":true,"internalType":"address"}],"anonymous":false},{"type":"event","name":"RoleAdminChanged","inputs":[{"name":"role","type":"bytes32","indexed":true,"internalType":"bytes32"},{"name":"previousAdminRole","type":"bytes32","indexed":true,"internalType":"bytes32"},{"name":"newAdminRole","type":"bytes32","indexed":true,"internalType":"bytes32"}],"anonymous":false},{"type":"event","name":"RoleGranted","inputs":[{"name":"role","type":"bytes32","indexed":true,"internalType":"bytes32"},{"name":"account","type":"address","indexed":true,"internalType":"address"},{"name":"sender","type":"address","indexed":true,"internalType":"address"}],"anonymous":false},{"type":"event","name":"RoleRevoked","inputs":[{"name":"role","type":"bytes32","indexed":true,"internalType":"bytes32"},{"name":"account","type":"address","indexed":true,"internalType":"address"},{"name":"sender","type":"address","indexed":true,"internalType":"address"}],"anonymous":false},{"type":"event","name":"VaultCreated","inputs":[{"name":"vaultId","type":"uint256","indexed":true,"internalType":"uint256"},{"name":"vaultAddress","type":"address","indexed":true,"internalType":"address"},{"name":"borrower","type":"address","indexed":true,"internalType":"address"},{"name":"contractHash","type":"bytes32","indexed":false,"internalType":"bytes32"},{"name":"principalAmount","type":"uint256","indexed":false,"internalType":"uint256"}],"anonymous":false},{"type":"error","name":"AccessControlBadConfirmation","inputs":[]},{"type":"error","name":"AccessControlUnauthorizedAccount","inputs":[{"name":"account","type":"address","internalType":"address"},{"name":"neededRole","type":"bytes32","internalType":"bytes32"}]}],"bytecode":{"object":"0x60e03461010a57601f613d7238819003918201601f19168301916001600160401b0383118484101761010e5780849260a09460405283398101031261010a5761004781610122565b9061005460208201610122565b61006060408301610122565b6060830151929091906001600160a01b038416840361010a5760800151936001600160a01b038516850361010a578061009b6100a192610136565b506101ac565b50608052600280546001600160a01b0319166001600160a01b039290921691909117905560a05260c052604051613ad29081610240823960805181818161025301526109a1015260a05181818161028101526105a3015260c05181818161016901526108220152f35b5f80fd5b634e487b7160e01b5f52604160045260245ffd5b51906001600160a01b038216820361010a57565b6001600160a01b0381165f9081525f516020613d525f395f51905f52602052604090205460ff166101a7576001600160a01b03165f8181525f516020613d525f395f51905f5260205260408120805460ff191660011790553391905f516020613d125f395f51905f528180a4600190565b505f90565b6001600160a01b0381165f9081525f516020613d325f395f51905f52602052604090205460ff166101a7576001600160a01b03165f8181525f516020613d325f395f51905f5260205260408120805460ff191660011790553391907f9af8e52fcefce2809a3764f197273e3febd830b37cc35ab3899dee370cb669c6905f516020613d125f395f51905f529080a460019056fe6080806040526004361015610012575f80fd5b5f3560e01c90816301ffc9a714610a8357508063248a9ca314610a515780632f2ff15d14610a1457806336568abe146109d05780633e413bee1461098c578063565b54ea1461088b578063697c526a146108515780636b868afb1461080d57806374d4e491146107f0578063850a1501146107c85780638c64ea4a1461079657806391d148541461074e5780639403b634146106d6578063a217fddf146106bc578063c11728c714610658578063d547741f14610614578063d7bfe386146105d2578063dff431b91461058e5763f3fad99c146100ed575f80fd5b346105825760c03660031901126105825760043560643560243560443560843567ffffffffffffffff81116105825761012a903690600401610b3a565b9160a43567ffffffffffffffff81116105825761014b903690600401610b3a565b604051636be2cefb60e01b81523360048201529094906020816024817f00000000000000000000000000000000000000000000000000000000000000006001600160a01b03165afa90811561039d575f9161054f575b50600381101561053b576002036104e857851561049357428111156104425781151580610436575b156103f9576103e883116103bc57600154945f1986146103a8576001868101905560025460405195612da88088019490926001600160a01b03169067ffffffffffffffff8611898710176103895788976102d7976102c895610cf58b398b88523360208901525f60408901528c6060890152608088015260a087015260c086015260018060a01b037f00000000000000000000000000000000000000000000000000000000000000001660e086015260018060a01b037f000000000000000000000000000000000000000000000000000000000000000016610100860152336101208601526101408501526101a06101608501526101a0840190610b90565b91610180818403910152610b90565b03905ff0801561039d575f82815260036020526040902080546001600160a01b0319166001600160a01b0392909216918217905560045492680100000000000000008410156103895761033284600160409601600455610aec565b81549060031b9084821b9160018060a01b03901b19161790558351905f8252602082015281837fc2d6fb30b95762eb52982b0405af00a78ce76f6be698c84cb0e3dd20fffc9a42863394a482519182526020820152f35b634e487b7160e01b5f52604160045260245ffd5b6040513d5f823e3d90fd5b634e487b7160e01b5f52601160045260245ffd5b60405162461bcd60e51b81526020600482015260156024820152740a0e4dee8dec6ded840cccaca40e8dede40d0d2ced605b1b6044820152606490fd5b60405162461bcd60e51b8152602060048201526015602482015274496e76616c696420696e746572657374207261746560581b6044820152606490fd5b506127108211156101c9565b60405162461bcd60e51b815260206004820152602360248201527f4d617475726974792064617465206d75737420626520696e207468652066757460448201526275726560e81b6064820152608490fd5b60405162461bcd60e51b815260206004820152602760248201527f5072696e636970616c20616d6f756e74206d75737420626520677265617465726044820152660207468616e20360cc1b6064820152608490fd5b60405162461bcd60e51b815260206004820152602560248201527f4d757374206861766520546965722032204e46542028436f6e7665786f5f5661604482015264756c74732960d81b6064820152608490fd5b634e487b7160e01b5f52602160045260245ffd5b90506020813d602011610586575b8161056a60209383610b18565b8101031261058257516003811015610582575f6101a1565b5f80fd5b3d915061055d565b34610582575f366003190112610582576040517f00000000000000000000000000000000000000000000000000000000000000006001600160a01b03168152602090f35b3461058257602036600319011261058257600435600454811015610582576105fb602091610aec565b905460405160039290921b1c6001600160a01b03168152f35b3461058257604036600319011261058257610656600435610633610ad6565b9061065161064c825f525f602052600160405f20015490565b610bb4565b610c74565b005b3461058257602036600319011261058257600435600454811015610681576105fb602091610aec565b60405162461bcd60e51b8152602060048201526013602482015272496e646578206f7574206f6620626f756e647360681b6044820152606490fd5b34610582575f3660031901126105825760206040515f8152f35b3461058257602036600319011261058257600435600154811015610712575f526003602052602060018060a01b0360405f205416604051908152f35b60405162461bcd60e51b815260206004820152601460248201527315985d5b1d08191bd95cc81b9bdd08195e1a5cdd60621b6044820152606490fd5b3461058257604036600319011261058257610767610ad6565b6004355f525f60205260405f209060018060a01b03165f52602052602060ff60405f2054166040519015158152f35b34610582576020366003190112610582576004355f526003602052602060018060a01b0360405f205416604051908152f35b34610582575f366003190112610582576002546040516001600160a01b039091168152602090f35b34610582575f366003190112610582576020600154604051908152f35b34610582575f366003190112610582576040517f00000000000000000000000000000000000000000000000000000000000000006001600160a01b03168152602090f35b34610582575f3660031901126105825760206040517f9af8e52fcefce2809a3764f197273e3febd830b37cc35ab3899dee370cb669c68152f35b34610582576020366003190112610582576004356001600160a01b0381169081900361058257335f9081527fad3228b676f7d3cd4284a5443f17f1962b36e491b30a40b2405849e597ba5fb5602052604090205460ff161561097557801561093057600280546001600160a01b0319811683179091556001600160a01b03167fd975c62eaa3c65dc5a253ebc57cfcd285d46a7cab97817ca43413a396e3303a85f80a3005b60405162461bcd60e51b815260206004820152601960248201527f496e76616c696420636f6c6c6563746f722061646472657373000000000000006044820152606490fd5b63e2517d3f60e01b5f52336004525f60245260445ffd5b34610582575f366003190112610582576040517f00000000000000000000000000000000000000000000000000000000000000006001600160a01b03168152602090f35b34610582576040366003190112610582576109e9610ad6565b336001600160a01b03821603610a055761065690600435610c74565b63334bd91960e11b5f5260045ffd5b3461058257604036600319011261058257610656600435610a33610ad6565b90610a4c61064c825f525f602052600160405f20015490565b610bec565b34610582576020366003190112610582576020610a7b6004355f525f602052600160405f20015490565b604051908152f35b34610582576020366003190112610582576004359063ffffffff60e01b821680920361058257602091637965db0b60e01b8114908115610ac5575b5015158152f35b6301ffc9a760e01b14905083610abe565b602435906001600160a01b038216820361058257565b600454811015610b045760045f5260205f2001905f90565b634e487b7160e01b5f52603260045260245ffd5b90601f8019910116810190811067ffffffffffffffff82111761038957604052565b81601f820112156105825780359067ffffffffffffffff82116103895760405192610b6f601f8401601f191660200185610b18565b8284526020838301011161058257815f926020809301838601378301015290565b805180835260209291819084018484015e5f828201840152601f01601f1916010190565b5f8181526020818152604080832033845290915290205460ff1615610bd65750565b63e2517d3f60e01b5f523360045260245260445ffd5b5f818152602081815260408083206001600160a01b038616845290915290205460ff16610c6e575f818152602081815260408083206001600160a01b0395909516808452949091528120805460ff19166001179055339291907f2f8788117e7eff1d82e926ec794901d17c78024a50270940304540a733656f0d9080a4600190565b50505f90565b5f818152602081815260408083206001600160a01b038616845290915290205460ff1615610c6e575f818152602081815260408083206001600160a01b0395909516808452949091528120805460ff19169055339291907ff6391f5c32d9c69d2a47ea670b442974b53935d1edc7fd64eb21e047a839171b9080a460019056fe60c0604052346104eb57612da880380380610019816104ef565b92833981016101a0828203126104eb5781519161003860208201610514565b6040820151606083015160808401519260a08501519260c086015161005f60e08801610514565b9461006d6101008901610514565b9661007b6101208a01610514565b996100896101408b01610514565b6101608b0151909a906001600160401b0381116104eb57826100ac918301610528565b6101808201519092906001600160401b0381116104eb576100cd9201610528565b815190916001600160401b0382116102f15760035490600182811c921680156104e1575b60208310146103e45781601f849311610473575b50602090601f831160011461040d575f92610402575b50508160011b915f199060031b1c1916176003555b8051906001600160401b0382116102f15760045490600182811c921680156103f8575b60208310146103e45781601f849311610376575b50602090601f8311600114610310575f92610305575b50508160011b915f199060031b1c1916176004555b60405161016081019b9096906001600160401b038d11888e10176102f1576102899c6040528752602087019560018060a01b0316865260408701948552606087019081526080870191825260a0870192835260c087019384525f60e08801526101008701945f86526101208801965f8852610140890198428a525160085560018060a01b0390511660018060a01b0319600954161760095551600a5551600b5551600c5551600d5551600e5560ff19600f5416600f5551601055516011555160125560018060a01b031660805260a05260018060a01b031660018060a01b0319601354161760135561028381610579565b506105ef565b506040516126c59081610683823960805181818161024a015281816103990152818161051c015281816108d501528181610b640152818161106e015281816116830152818161186e01528181611ced01526120f0015260a05181818161046001526117f10152f35b634e487b7160e01b5f52604160045260245ffd5b015190505f8061017d565b60045f9081528281209350601f198516905b81811061035e5750908460019594939210610346575b505050811b01600455610192565b01515f1960f88460031b161c191690555f8080610338565b92936020600181928786015181550195019301610322565b60045f529091507f8a35acfbc15ff81a39ae7d344fd709f28e8600b4aa8c65c6b64bfe7fe36bd19b601f840160051c810191602085106103da575b90601f859493920160051c01905b8181106103cc5750610167565b5f81558493506001016103bf565b90915081906103b1565b634e487b7160e01b5f52602260045260245ffd5b91607f1691610153565b015190505f8061011b565b60035f9081528281209350601f198516905b81811061045b5750908460019594939210610443575b505050811b01600355610130565b01515f1960f88460031b161c191690555f8080610435565b9293602060018192878601518155019501930161041f565b60035f529091507fc2575a0e9e593c00f959f8c92f12db2869c3395a3b0502d05e2516446f71f85b601f840160051c810191602085106104d7575b90601f859493920160051c01905b8181106104c95750610105565b5f81558493506001016104bc565b90915081906104ae565b91607f16916100f1565b5f80fd5b6040519190601f01601f191682016001600160401b038111838210176102f157604052565b51906001600160a01b03821682036104eb57565b81601f820112156104eb578051906001600160401b0382116102f157610557601f8301601f19166020016104ef565b92828452602083830101116104eb57815f9260208093018386015e8301015290565b6001600160a01b0381165f9081525f516020612d885f395f51905f52602052604090205460ff166105ea576001600160a01b03165f8181525f516020612d885f395f51905f5260205260408120805460ff191660011790553391905f516020612d485f395f51905f528180a4600190565b505f90565b6001600160a01b0381165f9081525f516020612d685f395f51905f52602052604090205460ff166105ea576001600160a01b03165f8181525f516020612d685f395f51905f5260205260408120805460ff191660011790553391907fd1473398bb66596de5d1ea1fc8e303ff2ac23265adc9144b1b52065dc4f0934b905f516020612d485f395f51905f529080a460019056fe6080806040526004361015610012575f80fd5b5f3560e01c90816301ffc9a714611eee5750806306fdde0314611e33578063095ea7b314611db157806318160ddd14611d94578063188874bd14611c6b57806323b872dd14611b8b57806324600fc31461177a578063248a9ca31461174f5780632f2ff15d14611711578063313ce567146116f657806336568abe146116b25780633e413bee1461166e5780633f50ce7e14611651578063437c32891461162f5780634409d236146114dd57806348c75134146114c05780634a8c110a146114995780634ccc1ae1146113f0578063501ec73814611367578063564afa3a1461134157806359dcc2ef146113195780635e5a24a4146112df57806365ac27711461125657806370a082311461121f578063850a1501146111f75780638795cccb14610f7f57806391d1485414610f3657806392b6c65a14610f1957806395d89b4114610e19578063a03eed1514610dfc578063a217fddf14610de2578063a9059cbb14610db1578063adba980414610afe578063b2f5a54c14610a36578063ba3a98c3146109ec578063d37415fe1461086a578063d547741f14610825578063dd62ed3e146107d5578063df48981a1461048f578063dff431b91461044b578063ea6bafba1461040e578063ed12e8ef1461036e5763ff6adfa4146101f5575f80fd5b34610323575f3660031901126103235760025460405163437c328960e01b815290602082600481305afa91821561032f575f9261033a575b506040516370a0823160e01b8152306004820152916020836024817f00000000000000000000000000000000000000000000000000000000000000006001600160a01b03165afa92831561032f575f936102f7575b50600b549283156102ed576010549361271085029480860461271014901517156102d9576102b28160c0966120ad565b915b600c5493604051958652602086015260408501526060840152608083015260a0820152f35b634e487b7160e01b5f52601160045260245ffd5b60c0935f916102b4565b9092506020813d602011610327575b8161031360209383611fa4565b810103126103235751915f610282565b5f80fd5b3d9150610306565b6040513d5f823e3d90fd5b9091506020813d602011610366575b8161035660209383611fa4565b810103126103235751905f61022d565b3d9150610349565b34610323575f366003190112610323576040516370a0823160e01b81523060048201526020816024817f00000000000000000000000000000000000000000000000000000000000000006001600160a01b03165afa801561032f575f906103db575b602090604051908152f35b506020813d602011610406575b816103f560209383611fa4565b8101031261032357602090516103d0565b3d91506103e8565b34610323576020366003190112610323576001600160a01b0361042f611f6b565b165f526007602052602060ff60405f2054166040519015158152f35b34610323575f366003190112610323576040517f00000000000000000000000000000000000000000000000000000000000000006001600160a01b03168152602090f35b346103235760203660031901126103235760043560ff600f541660068110156107c15761077c576104c18115156123d9565b6104cd8160105461224b565b600b541061073757335f52600760205260ff60405f20541615610697575b6040516323b872dd60e01b8152336004820152306024820152604481018290526020816064815f6001600160a01b037f0000000000000000000000000000000000000000000000000000000000000000165af1801561032f575f9061065c575b6105559150612057565b3315610649576105678160025461224b565b600255335f525f60205260405f208181540190556040518181525f7fddf252ad1be2c89b69c2b068fc378daa952ba7f163c4a11628f55a4df523b3ef60203393a36105b48160105461224b565b90816010556040519080825260208201527f630b54f21d1c5ae41c4633ad96e8c15ce15665365eded6a38476ffa71c8ace6c60403392a2600b54146105f557005b600160ff19600f541617600f555f5160206126705f395f51905f52602060405160018152a16008547f854746427b54d86a0fa5d7e7f756fb33f0907a24f8c76cf3d75520fa32650f0e6020604051428152a2005b63ec442f0560e01b5f525f60045260245ffd5b506020813d60201161068f575b8161067660209383611fa4565b810103126103235761068a6105559161204a565b61054b565b3d9150610669565b6006546801000000000000000081101561072357600181018060065581101561070f577ff652222313e28459528d920b65115c16c04f3efc82aaedc97be59f3f377c0d3f01336bffffffffffffffffffffffff60a01b825416179055335f52600760205260405f20600160ff198254161790556104eb565b634e487b7160e01b5f52603260045260245ffd5b634e487b7160e01b5f52604160045260245ffd5b60405162461bcd60e51b815260206004820152601860248201527f45786365656473207072696e636970616c20616d6f756e7400000000000000006044820152606490fd5b60405162461bcd60e51b815260206004820152601c60248201527f5661756c74206e6f7420616363657074696e67206465706f73697473000000006044820152606490fd5b634e487b7160e01b5f52602160045260245ffd5b34610323576040366003190112610323576107ee611f6b565b6107f6611f81565b6001600160a01b039182165f908152600160209081526040808320949093168252928352819020549051908152f35b3461032357604036600319011261032357610868600435610844611f81565b9061086361085e825f526005602052600160405f20015490565b612494565b6125eb565b005b346103235760203660031901126103235760043560ff600f541660068110156107c15760036108999114612188565b6108a48115156123d9565b6040516323b872dd60e01b8152336004820152306024820152604481018290526020816064815f6001600160a01b037f0000000000000000000000000000000000000000000000000000000000000000165af1801561032f575f906109b1575b61090e9150612057565b7fd3337f372235c0c137836a45251cd21fba324e7ef27c7acc5ac12451491793b9604061093d8360115461224b565b92836011558151908152836020820152a1610982600b5461097d612710610966600c548461209a565b04612710610976600d548561209a565b049261224b565b61224b565b111561098a57005b600460ff19600f541617600f555f5160206126705f395f51905f52602060405160048152a1005b506020813d6020116109e4575b816109cb60209383611fa4565b81010312610323576109df61090e9161204a565b610904565b3d91506109be565b3461032357602036600319011261032357610a32610a10610a0b611f6b565b612298565b6040805194855260208501939093529183015260608201529081906080820190565b0390f35b34610323575f366003190112610323576040518060206006549283815201809260065f527ff652222313e28459528d920b65115c16c04f3efc82aaedc97be59f3f377c0d3f905f5b818110610adf5750505081610a94910382611fa4565b604051918291602083019060208452518091526040830191905f5b818110610abd575050500390f35b82516001600160a01b0316845285945060209384019390920191600101610aaf565b82546001600160a01b0316845260209093019260019283019201610a7e565b346103235760203660031901126103235760043560ff600f541660068110156107c157806003610b379214908115610da6575b50612258565b8015610d6157335f525f6020528060405f205410610d26576040516370a0823160e01b81523060048201527f00000000000000000000000000000000000000000000000000000000000000006001600160a01b031690602081602481855afa90811561032f575f91610cf2575b50610bb2610bbb918461209a565b600254906120ad565b903315610cdf57335f525f6020528260405f2054818110610cc657335f525f6020520360405f205582600254036002555f6040518481527fddf252ad1be2c89b69c2b068fc378daa952ba7f163c4a11628f55a4df523b3ef60203392a360405163a9059cbb60e01b81523360048201526024810183905290602090829060449082905f905af1801561032f575f90610c8b575b610c589150612057565b60405191825260208201527ff18a1e0eb1d585d2194cdc081f34e04df407e94de5238f45531482467e31705f60403392a2005b506020813d602011610cbe575b81610ca560209383611fa4565b8101031261032357610cb9610c589161204a565b610c4e565b3d9150610c98565b63391434e360e21b5f523360045260245260445260645ffd5b634b637e8f60e11b5f525f60045260245ffd5b90506020813d602011610d1e575b81610d0d60209383611fa4565b810103126103235751610bb2610ba4565b3d9150610d00565b60405162461bcd60e51b8152602060048201526013602482015272496e73756666696369656e742073686172657360681b6044820152606490fd5b60405162461bcd60e51b815260206004820152601d60248201527f536861726573206d7573742062652067726561746572207468616e20300000006044820152606490fd5b600491501483610b31565b3461032357604036600319011261032357610dd7610dcd611f6b565b60243590336124ce565b602060405160018152f35b34610323575f3660031901126103235760206040515f8152f35b34610323575f366003190112610323576020600b54604051908152f35b34610323575f366003190112610323576040515f6004548060011c90600181168015610f0f575b602083108114610efb57828552908115610ed75750600114610e79575b610a3283610e6d81850382611fa4565b60405191829182611f41565b91905060045f527f8a35acfbc15ff81a39ae7d344fd709f28e8600b4aa8c65c6b64bfe7fe36bd19b915f905b808210610ebd57509091508101602001610e6d610e5d565b919260018160209254838588010152019101909291610ea5565b60ff191660208086019190915291151560051b84019091019150610e6d9050610e5d565b634e487b7160e01b5f52602260045260245ffd5b91607f1691610e40565b34610323575f366003190112610323576020600a54604051908152f35b3461032357604036600319011261032357610f4f611f81565b6004355f52600560205260405f209060018060a01b03165f52602052602060ff60405f2054166040519015158152f35b34610323575f366003190112610323576013546001600160a01b0316338190036111b25760ff600f541660068110156107c157806003610fc79214908115610da65750612258565b600b54610ff9612710610fdc600c548461209a565b049161097d612710610ff0600d548461209a565b0493849261224b565b60115481811061119b5750505b6014549081808211156111925761101c916121d4565b915b82156111585782602091611035826110699561224b565b60145560405163a9059cbb60e01b81526001600160a01b039091166004820152602481019190915291829081906044820190565b03815f7f00000000000000000000000000000000000000000000000000000000000000006001600160a01b03165af190811561032f575f9161111e575b50156110d95760207f105f60c53a24d9fee4737b5511c4c276a1ac00d876fde2fc54320c7d7b21545391604051908152a1005b60405162461bcd60e51b815260206004820152601c60248201527f50726f746f636f6c20666565207472616e73666572206661696c6564000000006044820152606490fd5b90506020813d602011611150575b8161113960209383611fa4565b810103126103235761114a9061204a565b826110a6565b3d915061112c565b60405162461bcd60e51b8152602060048201526012602482015271139bc81999595cc81d1bc818dbdb1b1958dd60721b6044820152606490fd5b50505f9161101e565b6111ad926111a89161209a565b6120ad565b611006565b60405162461bcd60e51b815260206004820152601b60248201527f4f6e6c792070726f746f636f6c2066656520636f6c6c6563746f7200000000006044820152606490fd5b34610323575f366003190112610323576013546040516001600160a01b039091168152602090f35b34610323576020366003190112610323576001600160a01b03611240611f6b565b165f525f602052602060405f2054604051908152f35b34610323575f36600319011261032357600b5461128261271061127b600c548461209a565b048261224b565b610a32601154928383115f146112d2576127106112ad6112a286866121d4565b925b600d549061209a565b0490604051948594859094939260609260808301968352602083015260408201520152565b6127106112ad5f926112a4565b34610323575f3660031901126103235760206040517fd1473398bb66596de5d1ea1fc8e303ff2ac23265adc9144b1b52065dc4f0934b8152f35b34610323575f366003190112610323576009546040516001600160a01b039091168152602090f35b34610323575f36600319011261032357604061135b6121e1565b82519182526020820152f35b34610323575f3660031901126103235761016060085460018060a01b0360095416600a54600b546113dc600c54600d54600e549060ff600f5416926010549560115497601254996040519b8c5260208c015260408b015260608a0152608089015260a088015260c087015260e0860190611f97565b610100840152610120830152610140820152f35b34610323575f36600319011261032357611408612425565b60ff600f541660068110156107c15760036114239114612188565b600e5442111561145457600560ff19600f541617600f555f5160206126705f395f51905f52602060405160058152a1005b60405162461bcd60e51b815260206004820152601960248201527f5661756c7420686173206e6f74206d61747572656420796574000000000000006044820152606490fd5b34610323575f36600319011261032357602060ff600f54166114be6040518092611f97565bf35b34610323575f366003190112610323576020601454604051908152f35b34610323576020366003190112610323576004356114f9612425565b60ff600f541660068110156107c1576001036115f757600a546115b25780156115755780600a55600260ff19600f541617600f557fd2901856acf0a24608052d840117a42d0a1f4504077d6a5963701875ee1a4d4f602060085492604051908152a25f5160206126705f395f51905f52602060405160028152a1005b60405162461bcd60e51b8152602060048201526015602482015274092dcecc2d8d2c840c6dedce8e4c2c6e840d0c2e6d605b1b6044820152606490fd5b60405162461bcd60e51b815260206004820152601960248201527f436f6e747261637420616c7265616479206174746163686564000000000000006044820152606490fd5b60405162461bcd60e51b815260206004820152601060248201526f15985d5b1d081b9bdd08199d5b99195960821b6044820152606490fd5b34610323575f3660031901126103235760206116496120cb565b604051908152f35b34610323575f366003190112610323576020601054604051908152f35b34610323575f366003190112610323576040517f00000000000000000000000000000000000000000000000000000000000000006001600160a01b03168152602090f35b34610323576040366003190112610323576116cb611f81565b336001600160a01b038216036116e757610868906004356125eb565b63334bd91960e11b5f5260045ffd5b34610323575f36600319011261032357602060405160128152f35b3461032357604036600319011261032357610868600435611730611f81565b9061174a61085e825f526005602052600160405f20015490565b612565565b346103235760203660031901126103235760206116496004355f526005602052600160405f20015490565b34610323575f366003190112610323576009546001600160a01b031633819003611b565760ff600f541660068110156107c15760026117b99114611fc6565b600a54908115611b1a57601054916117d5600b54809414612005565b604051631c2d8fb360e31b815260048101919091525f816024817f00000000000000000000000000000000000000000000000000000000000000006001600160a01b03165afa90811561032f575f916119cc575b5060a0810151156119875760c0015161194d5760405163a9059cbb60e01b81526001600160a01b0390911660048201526024810191909152602081806044810103815f7f00000000000000000000000000000000000000000000000000000000000000006001600160a01b03165af1801561032f575f90611912575b6118ae90612057565b6118c0600360ff19600f541617600f55565b60018060a01b03600954167feaff4b37086828766ad3268786972c0cd24259d4c87a80f9d3963a3c3d999b0d6020600b54604051908152a25f5160206126705f395f51905f52602060405160038152a1005b506020813d602011611945575b8161192c60209383611fa4565b81010312610323576119406118ae9161204a565b6118a5565b3d915061191f565b60405162461bcd60e51b815260206004820152601260248201527110dbdb9d1c9858dd0818d85b98d95b1b195960721b6044820152606490fd5b60405162461bcd60e51b815260206004820152601960248201527f436f6e7472616374206e6f742066756c6c79207369676e6564000000000000006044820152606490fd5b90503d805f833e6119dd8183611fa4565b8101906020818303126103235780519067ffffffffffffffff8211610323570190610140828203126103235760405191610140830183811067ffffffffffffffff82111761072357604052805183526020810151600481101561032357602084015260408101516001600160a01b03811681036103235760408401526060810151606084015260808101516080840152611a7960a0820161204a565b60a0840152611a8a60c0820161204a565b60c084015260e081015167ffffffffffffffff81116103235781019180601f8401121561032357825167ffffffffffffffff81116107235760405191611ada601f8301601f191660200184611fa4565b81835260208286010111610323576020815f928261012097018386015e8301015260e0840152610100810151610100840152015161012082015283611829565b60405162461bcd60e51b8152602060048201526014602482015273139bc818dbdb9d1c9858dd08185d1d1858da195960621b6044820152606490fd5b60405162461bcd60e51b815260206004820152600d60248201526c27b7363c903137b93937bbb2b960991b6044820152606490fd5b3461032357606036600319011261032357611ba4611f6b565b611bac611f81565b6001600160a01b0382165f818152600160208181526040808420338552909152909120549193604435939290918101611beb575b50610dd793506124ce565b838110611c50578415611c3d573315611c2a57610dd7945f52600160205260405f2060018060a01b0333165f526020528360405f209103905584611be0565b634a1406b160e11b5f525f60045260245ffd5b63e602df0560e01b5f525f60045260245ffd5b8390637dc7a0d960e11b5f523360045260245260445260645ffd5b34610323575f36600319011261032357611c83612425565b60ff600f541660068110156107c1576002611c9e9114611fc6565b611ce86020601054611cb4600b54809214612005565b60095460405163a9059cbb60e01b81526001600160a01b039091166004820152602481019190915291829081906044820190565b03815f7f00000000000000000000000000000000000000000000000000000000000000006001600160a01b03165af1801561032f575f90611d59575b611d2d90612057565b611d3f600360ff19600f541617600f55565b5f5160206126705f395f51905f52602060405160038152a1005b506020813d602011611d8c575b81611d7360209383611fa4565b8101031261032357611d87611d2d9161204a565b611d24565b3d9150611d66565b34610323575f366003190112610323576020600254604051908152f35b3461032357604036600319011261032357611dca611f6b565b602435903315611c3d576001600160a01b0316908115611c2a57335f52600160205260405f20825f526020528060405f20556040519081527f8c5be1e5ebec7d5bd14f71427d1e84f3dd0314c0f7b2291e5b200ac8c7c3b92560203392a3602060405160018152f35b34610323575f366003190112610323576040515f6003548060011c90600181168015611ee4575b602083108114610efb57828552908115610ed75750600114611e8657610a3283610e6d81850382611fa4565b91905060035f527fc2575a0e9e593c00f959f8c92f12db2869c3395a3b0502d05e2516446f71f85b915f905b808210611eca57509091508101602001610e6d610e5d565b919260018160209254838588010152019101909291611eb2565b91607f1691611e5a565b34610323576020366003190112610323576004359063ffffffff60e01b821680920361032357602091637965db0b60e01b8114908115611f30575b5015158152f35b6301ffc9a760e01b14905083611f29565b602060409281835280519182918282860152018484015e5f828201840152601f01601f1916010190565b600435906001600160a01b038216820361032357565b602435906001600160a01b038216820361032357565b9060068210156107c15752565b90601f8019910116810190811067ffffffffffffffff82111761072357604052565b15611fcd57565b60405162461bcd60e51b815260206004820152601060248201526f5661756c74206e6f742061637469766560801b6044820152606490fd5b1561200c57565b60405162461bcd60e51b815260206004820152601660248201527515985d5b1d081b9bdd08199d5b1b1e48199d5b99195960521b6044820152606490fd5b5190811515820361032357565b1561205e57565b60405162461bcd60e51b81526020600482015260146024820152731554d110c81d1c985b9cd9995c8819985a5b195960621b6044820152606490fd5b818102929181159184041417156102d957565b81156120b7570490565b634e487b7160e01b5f52601260045260245ffd5b6002548015612180576040516370a0823160e01b8152306004820152906020826024817f00000000000000000000000000000000000000000000000000000000000000006001600160a01b03165afa91821561032f575f9261214c575b50620f4240820291808304620f424014901517156102d957612149916120ad565b90565b9091506020813d602011612178575b8161216860209383611fa4565b810103126103235751905f612128565b3d915061215b565b50620f424090565b1561218f57565b60405162461bcd60e51b815260206004820152601b60248201527f5661756c74206e6f7420696e207265706179696e6720737461746500000000006044820152606490fd5b919082039182116102d957565b60ff600f541660068110156107c15760030361224557600b549061271061220a600c548461209a565b0491601154908082115f1461223c57612222916121d4565b915b828082111561223657612149916121d4565b50505f90565b50505f91612224565b5f905f90565b919082018092116102d957565b1561225f57565b60405162461bcd60e51b8152602060048201526011602482015270139bc81c995c185e5b595b9d1cc81e595d607a1b6044820152606490fd5b6001600160a01b03165f908152602081905260408120549081156123cd5760405163437c328960e01b8152602081600481305afa90811561032f575f91612399575b506122e9620f4240918461209a565b049282841115612392576122fd83856121d4565b925b60ff600f541660068110156107c15760031480612389575b1561238157612328601254426121d4565b80612336575b505b93929190565b909250612710840284810461271014851517156102d95764496cebb8008502908082046301e1338014901517156102d95761237461237a928561209a565b906120ad565b915f61232e565b5f9250612330565b50831515612317565b5f926122ff565b90506020813d6020116123c5575b816123b460209383611fa4565b8101031261032357516122e96122da565b3d91506123a7565b50505f905f905f905f90565b156123e057565b60405162461bcd60e51b815260206004820152601d60248201527f416d6f756e74206d7573742062652067726561746572207468616e20300000006044820152606490fd5b335f9081527fc984a6c0064108f06b71dff1fe57b923f1b8200676abeeb0b4ecfb1c43d12bf6602052604090205460ff161561245d57565b63e2517d3f60e01b5f52336004527fd1473398bb66596de5d1ea1fc8e303ff2ac23265adc9144b1b52065dc4f0934b60245260445ffd5b5f81815260056020908152604080832033845290915290205460ff16156124b85750565b63e2517d3f60e01b5f523360045260245260445ffd5b6001600160a01b0316908115610cdf576001600160a01b031691821561064957815f525f60205260405f205481811061254c57817fddf252ad1be2c89b69c2b068fc378daa952ba7f163c4a11628f55a4df523b3ef92602092855f525f84520360405f2055845f525f825260405f20818154019055604051908152a3565b8263391434e360e21b5f5260045260245260445260645ffd5b5f8181526005602090815260408083206001600160a01b038616845290915290205460ff16612236575f8181526005602090815260408083206001600160a01b0395909516808452949091528120805460ff19166001179055339291907f2f8788117e7eff1d82e926ec794901d17c78024a50270940304540a733656f0d9080a4600190565b5f8181526005602090815260408083206001600160a01b038616845290915290205460ff1615612236575f8181526005602090815260408083206001600160a01b0395909516808452949091528120805460ff19169055339291907ff6391f5c32d9c69d2a47ea670b442974b53935d1edc7fd64eb21e047a839171b9080a460019056fe0aedb3df6e46baf47dae9965f71ec34b94ed931db79aaa087d745b7c610e2704a26469706673582212202d7c40e3125794db481097be916224d7fe72832ff0a788962051cbac9cbee5a364736f6c634300081e00332f8788117e7eff1d82e926ec794901d17c78024a50270940304540a733656f0dc984a6c0064108f06b71dff1fe57b923f1b8200676abeeb0b4ecfb1c43d12bf605b8ccbb9d4d8fb16ea74ce3c29a41f1b461fbdaff4714a0d9a8eb05499746bca2646970667358221220df1618166ea72e176fb6a7b4eb9650ae7c908debcf9d647b185bf603c3f183fd64736f6c634300081e00332f8788117e7eff1d82e926ec794901d17c78024a50270940304540a733656f0d9ba1ef136530fdb394f45c113cf703b61704221e84b6f4793ed63cea1e056e94ad3228b676f7d3cd4284a5443f17f1962b36e491b30a40b2405849e597ba5fb5","linkReferences":{}},"methodIdentifiers":{"DEFAULT_ADMIN_ROLE()":"a217fddf","VAULT_CREATOR_ROLE()":"697c526a","contractSigner()":"dff431b9","createVault(uint256,uint256,uint256,uint256,string,string)":"f3fad99c","getRoleAdmin(bytes32)":"248a9ca3","getVault(uint256)":"9403b634","getVaultAddressAtIndex(uint256)":"c11728c7","getVaultCount()":"74d4e491","grantRole(bytes32,address)":"2f2ff15d","hasRole(bytes32,address)":"91d14854","protocolFeeCollector()":"850a1501","renounceRole(bytes32,address)":"36568abe","reputationManager()":"6b868afb","revokeRole(bytes32,address)":"d547741f","supportsInterface(bytes4)":"01ffc9a7","updateProtocolFeeCollector(address)":"565b54ea","usdc()":"3e413bee","vaultAddresses(uint256)":"d7bfe386","vaults(uint256)":"8c64ea4a"},"id":59}